{
  "contractName": "ROIToken",
  "abi": [
    {
      "inputs": [],
      "stateMutability": "nonpayable",
      "type": "constructor"
    },
    {
      "anonymous": false,
      "inputs": [
        {
          "indexed": true,
          "internalType": "address",
          "name": "owner",
          "type": "address"
        },
        {
          "indexed": true,
          "internalType": "address",
          "name": "spender",
          "type": "address"
        },
        {
          "indexed": false,
          "internalType": "uint256",
          "name": "value",
          "type": "uint256"
        }
      ],
      "name": "Approval",
      "type": "event"
    },
    {
      "anonymous": false,
      "inputs": [
        {
          "indexed": true,
          "internalType": "address",
          "name": "account",
          "type": "address"
        },
        {
          "indexed": false,
          "internalType": "uint256",
          "name": "value",
          "type": "uint256"
        }
      ],
      "name": "Buy",
      "type": "event"
    },
    {
      "anonymous": false,
      "inputs": [
        {
          "indexed": true,
          "internalType": "address",
          "name": "previousOwner",
          "type": "address"
        },
        {
          "indexed": true,
          "internalType": "address",
          "name": "newOwner",
          "type": "address"
        }
      ],
      "name": "OwnershipTransferred",
      "type": "event"
    },
    {
      "anonymous": false,
      "inputs": [
        {
          "indexed": true,
          "internalType": "address",
          "name": "account",
          "type": "address"
        },
        {
          "indexed": false,
          "internalType": "uint256",
          "name": "value",
          "type": "uint256"
        }
      ],
      "name": "Sell",
      "type": "event"
    },
    {
      "anonymous": false,
      "inputs": [
        {
          "indexed": true,
          "internalType": "address",
          "name": "from",
          "type": "address"
        },
        {
          "indexed": true,
          "internalType": "address",
          "name": "to",
          "type": "address"
        },
        {
          "indexed": false,
          "internalType": "uint256",
          "name": "value",
          "type": "uint256"
        }
      ],
      "name": "Transfer",
      "type": "event"
    },
    {
      "inputs": [],
      "name": "MAX",
      "outputs": [
        {
          "internalType": "uint256",
          "name": "",
          "type": "uint256"
        }
      ],
      "stateMutability": "view",
      "type": "function",
      "constant": true
    },
    {
      "inputs": [],
      "name": "_maxTxAmount",
      "outputs": [
        {
          "internalType": "uint256",
          "name": "",
          "type": "uint256"
        }
      ],
      "stateMutability": "view",
      "type": "function",
      "constant": true
    },
    {
      "inputs": [
        {
          "internalType": "address",
          "name": "",
          "type": "address"
        }
      ],
      "name": "_rOwned",
      "outputs": [
        {
          "internalType": "uint256",
          "name": "",
          "type": "uint256"
        }
      ],
      "stateMutability": "view",
      "type": "function",
      "constant": true
    },
    {
      "inputs": [],
      "name": "_rTotal",
      "outputs": [
        {
          "internalType": "uint256",
          "name": "",
          "type": "uint256"
        }
      ],
      "stateMutability": "view",
      "type": "function",
      "constant": true
    },
    {
      "inputs": [
        {
          "internalType": "address",
          "name": "",
          "type": "address"
        }
      ],
      "name": "_tOwned",
      "outputs": [
        {
          "internalType": "uint256",
          "name": "",
          "type": "uint256"
        }
      ],
      "stateMutability": "view",
      "type": "function",
      "constant": true
    },
    {
      "inputs": [],
      "name": "_tTotal",
      "outputs": [
        {
          "internalType": "uint256",
          "name": "",
          "type": "uint256"
        }
      ],
      "stateMutability": "view",
      "type": "function",
      "constant": true
    },
    {
      "inputs": [
        {
          "internalType": "address",
          "name": "owner",
          "type": "address"
        },
        {
          "internalType": "address",
          "name": "spender",
          "type": "address"
        }
      ],
      "name": "allowance",
      "outputs": [
        {
          "internalType": "uint256",
          "name": "",
          "type": "uint256"
        }
      ],
      "stateMutability": "view",
      "type": "function",
      "constant": true
    },
    {
      "inputs": [
        {
          "internalType": "address",
          "name": "spender",
          "type": "address"
        },
        {
          "internalType": "uint256",
          "name": "value",
          "type": "uint256"
        }
      ],
      "name": "approve",
      "outputs": [
        {
          "internalType": "bool",
          "name": "",
          "type": "bool"
        }
      ],
      "stateMutability": "nonpayable",
      "type": "function"
    },
    {
      "inputs": [],
      "name": "decimals",
      "outputs": [
        {
          "internalType": "uint8",
          "name": "",
          "type": "uint8"
        }
      ],
      "stateMutability": "view",
      "type": "function",
      "constant": true
    },
    {
      "inputs": [
        {
          "internalType": "address",
          "name": "spender",
          "type": "address"
        },
        {
          "internalType": "uint256",
          "name": "subtractedValue",
          "type": "uint256"
        }
      ],
      "name": "decreaseAllowance",
      "outputs": [
        {
          "internalType": "bool",
          "name": "",
          "type": "bool"
        }
      ],
      "stateMutability": "nonpayable",
      "type": "function"
    },
    {
      "inputs": [],
      "name": "getOwner",
      "outputs": [
        {
          "internalType": "address",
          "name": "",
          "type": "address"
        }
      ],
      "stateMutability": "view",
      "type": "function",
      "constant": true
    },
    {
      "inputs": [
        {
          "internalType": "address",
          "name": "spender",
          "type": "address"
        },
        {
          "internalType": "uint256",
          "name": "addedValue",
          "type": "uint256"
        }
      ],
      "name": "increaseAllowance",
      "outputs": [
        {
          "internalType": "bool",
          "name": "",
          "type": "bool"
        }
      ],
      "stateMutability": "nonpayable",
      "type": "function"
    },
    {
      "inputs": [],
      "name": "name",
      "outputs": [
        {
          "internalType": "string",
          "name": "",
          "type": "string"
        }
      ],
      "stateMutability": "view",
      "type": "function",
      "constant": true
    },
    {
      "inputs": [],
      "name": "owner",
      "outputs": [
        {
          "internalType": "address",
          "name": "",
          "type": "address"
        }
      ],
      "stateMutability": "view",
      "type": "function",
      "constant": true
    },
    {
      "inputs": [],
      "name": "renounceOwnership",
      "outputs": [],
      "stateMutability": "nonpayable",
      "type": "function"
    },
    {
      "inputs": [],
      "name": "symbol",
      "outputs": [
        {
          "internalType": "string",
          "name": "",
          "type": "string"
        }
      ],
      "stateMutability": "view",
      "type": "function",
      "constant": true
    },
    {
      "inputs": [
        {
          "internalType": "address",
          "name": "from",
          "type": "address"
        },
        {
          "internalType": "address",
          "name": "to",
          "type": "address"
        },
        {
          "internalType": "uint256",
          "name": "value",
          "type": "uint256"
        }
      ],
      "name": "transferFrom",
      "outputs": [
        {
          "internalType": "bool",
          "name": "",
          "type": "bool"
        }
      ],
      "stateMutability": "nonpayable",
      "type": "function"
    },
    {
      "inputs": [
        {
          "internalType": "address",
          "name": "newOwner",
          "type": "address"
        }
      ],
      "name": "transferOwnership",
      "outputs": [],
      "stateMutability": "nonpayable",
      "type": "function"
    },
    {
      "inputs": [],
      "name": "totalSupply",
      "outputs": [
        {
          "internalType": "uint256",
          "name": "",
          "type": "uint256"
        }
      ],
      "stateMutability": "view",
      "type": "function",
      "constant": true
    },
    {
      "inputs": [
        {
          "internalType": "address",
          "name": "account",
          "type": "address"
        }
      ],
      "name": "balanceOf",
      "outputs": [
        {
          "internalType": "uint256",
          "name": "",
          "type": "uint256"
        }
      ],
      "stateMutability": "view",
      "type": "function",
      "constant": true
    },
    {
      "inputs": [
        {
          "internalType": "address",
          "name": "recipient",
          "type": "address"
        },
        {
          "internalType": "uint256",
          "name": "amount",
          "type": "uint256"
        }
      ],
      "name": "transfer",
      "outputs": [
        {
          "internalType": "bool",
          "name": "",
          "type": "bool"
        }
      ],
      "stateMutability": "nonpayable",
      "type": "function"
    },
    {
      "inputs": [
        {
          "internalType": "address",
          "name": "account",
          "type": "address"
        }
      ],
      "name": "isExcluded",
      "outputs": [
        {
          "internalType": "bool",
          "name": "",
          "type": "bool"
        }
      ],
      "stateMutability": "view",
      "type": "function",
      "constant": true
    },
    {
      "inputs": [],
      "name": "totalFees",
      "outputs": [
        {
          "internalType": "uint256",
          "name": "",
          "type": "uint256"
        }
      ],
      "stateMutability": "view",
      "type": "function",
      "constant": true
    },
    {
      "inputs": [
        {
          "internalType": "uint256",
          "name": "maxTxPercent",
          "type": "uint256"
        }
      ],
      "name": "setMaxTxPercent",
      "outputs": [],
      "stateMutability": "nonpayable",
      "type": "function"
    },
    {
      "inputs": [
        {
          "internalType": "uint256",
          "name": "tAmount",
          "type": "uint256"
        }
      ],
      "name": "reflect",
      "outputs": [],
      "stateMutability": "nonpayable",
      "type": "function"
    },
    {
      "inputs": [
        {
          "internalType": "uint256",
          "name": "tAmount",
          "type": "uint256"
        },
        {
          "internalType": "bool",
          "name": "deductTransferFee",
          "type": "bool"
        }
      ],
      "name": "reflectionFromToken",
      "outputs": [
        {
          "internalType": "uint256",
          "name": "",
          "type": "uint256"
        }
      ],
      "stateMutability": "view",
      "type": "function",
      "constant": true
    },
    {
      "inputs": [
        {
          "internalType": "uint256",
          "name": "rAmount",
          "type": "uint256"
        }
      ],
      "name": "tokenFromReflection",
      "outputs": [
        {
          "internalType": "uint256",
          "name": "",
          "type": "uint256"
        }
      ],
      "stateMutability": "view",
      "type": "function",
      "constant": true
    },
    {
      "inputs": [
        {
          "internalType": "address",
          "name": "account",
          "type": "address"
        }
      ],
      "name": "excludeFromReward",
      "outputs": [],
      "stateMutability": "nonpayable",
      "type": "function"
    },
    {
      "inputs": [
        {
          "internalType": "address",
          "name": "account",
          "type": "address"
        }
      ],
      "name": "includeInReward",
      "outputs": [],
      "stateMutability": "nonpayable",
      "type": "function"
    },
    {
      "inputs": [
        {
          "internalType": "address",
          "name": "account",
          "type": "address"
        }
      ],
      "name": "isBot",
      "outputs": [
        {
          "internalType": "bool",
          "name": "",
          "type": "bool"
        }
      ],
      "stateMutability": "view",
      "type": "function",
      "constant": true
    },
    {
      "inputs": [
        {
          "internalType": "address",
          "name": "account",
          "type": "address"
        }
      ],
      "name": "_blacklistBot",
      "outputs": [],
      "stateMutability": "nonpayable",
      "type": "function"
    },
    {
      "inputs": [
        {
          "internalType": "address",
          "name": "account",
          "type": "address"
        }
      ],
      "name": "_amnestyBot",
      "outputs": [],
      "stateMutability": "nonpayable",
      "type": "function"
    }
  ],
  "bytecode": "0x60806040526200001d6a52b7d2dcc80cd2e400000060001962000112565b6200002b906000196200014e565b600855690a968163f0a57b400000600a553480156200004957600080fd5b5060006200005f6401000000006200010e810204565b60008054600160a060020a031916600160a060020a0383169081178255604051929350917f8be0079c531659141344cd1fd0a4f28419497f9722a3daafe3b4186f6b6457e0908290a350600854306000818152600460205260408082209390935591519091907fddf252ad1be2c89b69c2b068fc378daa952ba7f163c4a11628f55a4df523b3ef9062000100906a52b7d2dcc80cd2e4000000815260200190565b60405180910390a36200018d565b3390565b60008262000149577f4e487b7100000000000000000000000000000000000000000000000000000000600052601260045260246000fd5b500690565b60008282101562000188577f4e487b7100000000000000000000000000000000000000000000000000000000600052601160045260246000fd5b500390565b611cdb806200019d6000396000f3fe608060405234801561001057600080fd5b50600436106101835760e060020a6000350463053ab182811461018857806306fdde031461019d578063095ea7b3146101de5780630cfc15f91461020157806313114a9d1461022f57806318160ddd1461023757806323b872dd146102485780632d8381191461025b578063313ce5671461026e5780633685d41914610288578063395093511461029b5780633b7e6d4a146102ae5780633bbac579146102ce5780634549b039146102fa57806345e0b9d41461030d57806352390c021461031657806370a0823114610329578063715018a61461033c578063786c8d11146103445780637d1db4a514610357578063893d20e8146103605780638da5cb5b1461038057806395d89b4114610388578063a457c2d7146103ad578063a9059cbb146103c0578063af465a27146103d3578063cba0e996146103e5578063d49d518114610411578063d543dbeb1461041a578063dd62ed3e1461042d578063f2fde38b14610466578063f79d86ec14610479575b600080fd5b61019b610196366004611996565b61048c565b005b6101c860405180604001604052806009815260200160b960020a682927a4902a37b5b2b70281525081565b6040516101d591906119af565b60405180910390f35b6101f16101ec366004611a20565b610582565b60405190151581526020016101d5565b61022161020f366004611a4a565b60046020526000908152604090205481565b6040519081526020016101d5565b600954610221565b6a52b7d2dcc80cd2e4000000610221565b6101f1610256366004611a65565b610599565b610221610269366004611996565b6105ea565b610276601281565b60405160ff90911681526020016101d5565b61019b610296366004611a4a565b610674565b6101f16102a9366004611a20565b610801565b6102216102bc366004611a4a565b60056020526000908152604090205481565b6101f16102dc366004611a4a565b600160a060020a03166000908152600b602052604090205460ff1690565b610221610308366004611aa1565b610837565b61022160085481565b61019b610324366004611a4a565b6108ce565b610221610337366004611a4a565b6109f7565b61019b610a56565b61019b610352366004611a4a565b610abb565b610221600a5481565b610368610c2a565b604051600160a060020a0390911681526020016101d5565b610368610c39565b6101c860405180604001604052806003815260200160e860020a62524f490281525081565b6101f16103bb366004611a20565b610c48565b6101f16103ce366004611a20565b610c7e565b6102216a52b7d2dcc80cd2e400000081565b6101f16103f3366004611a4a565b600160a060020a031660009081526006602052604090205460ff1690565b61022160001981565b61019b610428366004611996565b610c8b565b61022161043b366004611ad6565b600160a060020a03918216600090815260026020908152604080832093909416825291909152205490565b61019b610474366004611a4a565b610cdf565b61019b610487366004611a4a565b610d18565b3360008181526006602052604090205460ff161561050c5760405160e560020a62461bcd02815260206004820152602c60248201527f4578636c75646564206164647265737365732063616e6e6f742063616c6c2074604482015260a160020a6b3434b990333ab731ba34b7b70260648201526084015b60405180910390fd5b600061051783610ea2565b505050600160a060020a03841660009081526004602052604090205491925061054291839150611b23565b600160a060020a038316600090815260046020526040902055600854610569908290611b23565b60085560095461057a908490611b3a565b600955505050565b600061058f338484610eee565b5060015b92915050565b60006105a6848484610f75565b600160a060020a0384166000908152600260209081526040808320338085529252909120546105e09186916105db908661132b565b610eee565b5060019392505050565b60006008548211156106575760405160e560020a62461bcd02815260206004820152602a60248201527f416d6f756e74206d757374206265206c657373207468616e20746f74616c2072604482015260b060020a6965666c656374696f6e73026064820152608401610503565b600061066161136d565b905061066d8184611b52565b9392505050565b600054600160a060020a031633146106a15760405160e560020a62461bcd02815260040161050390611b78565b600160a060020a03811660009081526006602052604090205460ff166106dc5760405160e560020a62461bcd02815260040161050390611bad565b60005b6007548110156107fd5781600160a060020a03166007828154811061070657610706611be4565b600091825260209091200154600160a060020a031614156107eb576007805461073190600190611b23565b8154811061074157610741611be4565b60009182526020909120015460078054600160a060020a03909216918390811061076d5761076d611be4565b60009182526020808320919091018054600160a060020a031916600160a060020a039485161790559184168152600582526040808220829055600690925220805460ff1916905560078054806107c5576107c5611bfe565b60008281526020902081016000199081018054600160a060020a03191690550190555050565b806107f581611c18565b9150506106df565b5050565b336000818152600260209081526040808320600160a060020a0387168452909152812054909161058f9185906105db9086611390565b60006a52b7d2dcc80cd2e40000008311156108975760405160e560020a62461bcd02815260206004820152601f60248201527f416d6f756e74206d757374206265206c657373207468616e20737570706c79006044820152606401610503565b816108b55760006108a784610ea2565b509294506105939350505050565b60006108c084610ea2565b509194506105939350505050565b600054600160a060020a031633146108fb5760405160e560020a62461bcd02815260040161050390611b78565b600160a060020a03811660009081526006602052604090205460ff16156109375760405160e560020a62461bcd02815260040161050390611bad565b600160a060020a0381166000908152600460205260409020541561099157600160a060020a038116600090815260046020526040902054610977906105ea565b600160a060020a0382166000908152600560205260409020555b600160a060020a03166000818152600660205260408120805460ff191660019081179091556007805491820181559091527fa66cc928b5edb82af9bd49922954155ab7b0942694bea4ce44661d9a8736c688018054600160a060020a0319169091179055565b600160a060020a03811660009081526006602052604081205460ff1615610a345750600160a060020a031660009081526005602052604090205490565b600160a060020a038216600090815260046020526040902054610593906105ea565b600054600160a060020a03163314610a835760405160e560020a62461bcd02815260040161050390611b78565b60008054604051600160a060020a0390911690600080516020611c86833981519152908390a360008054600160a060020a0319169055565b600054600160a060020a03163314610ae85760405160e560020a62461bcd02815260040161050390611b78565b7310ed43c718714eb63d5aa57b78b54704e256024e600160a060020a0382161415610b585760405160e560020a62461bcd02815260206004820152601f60248201527f57652063616e6e6f7420626c61636b6c6973742050616e63616b6573776170006044820152606401610503565b600160a060020a0381166000908152600b602052604090205460ff1615610bc45760405160e560020a62461bcd02815260206004820152601e60248201527f4163636f756e7420697320616c726561647920626c61636b6c697374656400006044820152606401610503565b600160a060020a03166000818152600b60205260408120805460ff19166001908117909155600c805491820181559091527fdf6966c971051c3d54ec59162606531493a51404a002842f56009d7e5cf4a8c7018054600160a060020a0319169091179055565b6000610c34610c39565b905090565b600054600160a060020a031690565b336000818152600260209081526040808320600160a060020a0387168452909152812054909161058f9185906105db908661132b565b600061058f338484610f75565b600054600160a060020a03163314610cb85760405160e560020a62461bcd02815260040161050390611b78565b6064610ccf826a52b7d2dcc80cd2e4000000611c33565b610cd99190611b52565b600a5550565b600054600160a060020a03163314610d0c5760405160e560020a62461bcd02815260040161050390611b78565b610d15816113f2565b50565b600054600160a060020a03163314610d455760405160e560020a62461bcd02815260040161050390611b78565b600160a060020a0381166000908152600b602052604090205460ff16610db05760405160e560020a62461bcd02815260206004820152601a60248201527f4163636f756e74206973206e6f7420626c61636b6c69737465640000000000006044820152606401610503565b60005b600c548110156107fd5781600160a060020a0316600c8281548110610dda57610dda611be4565b600091825260209091200154600160a060020a03161415610e9057600c8054610e0590600190611b23565b81548110610e1557610e15611be4565b600091825260209091200154600c8054600160a060020a039092169183908110610e4157610e41611be4565b60009182526020808320919091018054600160a060020a031916600160a060020a039485161790559184168152600b90915260409020805460ff19169055600c8054806107c5576107c5611bfe565b80610e9a81611c18565b915050610db3565b6000806000806000806000610eb6886114a6565b915091506000610ec461136d565b90506000806000610ed68c86866114d9565b919e909d50909b509599509397509395505050505050565b600160a060020a038216610f0157600080fd5b600160a060020a038316610f1457600080fd5b600160a060020a0383811660008181526002602090815260408083209487168084529482529182902085905590518481527f8c5be1e5ebec7d5bd14f71427d1e84f3dd0314c0f7b2291e5b200ac8c7c3b925910160405180910390a3505050565b600160a060020a038316610fdf5760405160e560020a62461bcd02815260206004820152602560248201527f45524332303a207472616e736665722066726f6d20746865207a65726f206164604482015260d860020a646472657373026064820152608401610503565b600160a060020a0382166110475760405160e560020a62461bcd02815260206004820152602360248201527f45524332303a207472616e7366657220746f20746865207a65726f2061646472604482015260e860020a62657373026064820152608401610503565b600081116110af5760405160e560020a62461bcd02815260206004820152602960248201527f5472616e7366657220616d6f756e74206d757374206265206772656174657220604482015260b860020a687468616e207a65726f026064820152608401610503565b6110b7610c39565b600160a060020a031683600160a060020a0316141580156110f157506110db610c39565b600160a060020a031682600160a060020a031614155b156111d757600a5481111561115f5760405160e560020a62461bcd02815260206004820152602860248201527f5472616e7366657220616d6f756e74206578636565647320746865206d617854604482015260c160020a673c20b6b7bab73a17026064820152608401610503565b600160a060020a0383166000908152600b602052604090205460ff161561119b5760405160e560020a62461bcd02815260040161050390611c52565b600160a060020a0382166000908152600b602052604090205460ff16156111d75760405160e560020a62461bcd02815260040161050390611c52565b600160a060020a03831660009081526006602052604090205460ff1680156112185750600160a060020a03821660009081526006602052604090205460ff16155b1561122d57611228838383611515565b505050565b600160a060020a03831660009081526006602052604090205460ff1615801561126e5750600160a060020a03821660009081526006602052604090205460ff165b1561127e57611228838383611631565b600160a060020a03831660009081526006602052604090205460ff161580156112c05750600160a060020a03821660009081526006602052604090205460ff16155b156112d0576112288383836116da565b600160a060020a03831660009081526006602052604090205460ff1680156113105750600160a060020a03821660009081526006602052604090205460ff165b156113205761122883838361171c565b6112288383836116da565b600061066d83836040518060400160405280601e81526020017f536166654d6174683a207375627472616374696f6e206f766572666c6f77000081525061178e565b600080600061137a6117cb565b90925090506113898183611b52565b9250505090565b60008061139d8385611b3a565b90508381101561066d5760405160e560020a62461bcd02815260206004820152601b60248201527f536166654d6174683a206164646974696f6e206f766572666c6f7700000000006044820152606401610503565b600160a060020a03811661145d5760405160e560020a62461bcd02815260206004820152602660248201527f4f776e61626c653a206e6577206f776e657220697320746865207a65726f2061604482015260d060020a65646472657373026064820152608401610503565b60008054604051600160a060020a0380851693921691600080516020611c8683398151915291a360008054600160a060020a031916600160a060020a0392909216919091179055565b600080806114b5606485611b52565b6114c0906002611c33565b905060006114ce8286611b23565b959194509092505050565b60008080806114e88588611c33565b905060006114f68688611c33565b905060006115048284611b23565b929992985090965090945050505050565b600080600080600061152686610ea2565b600160a060020a038d1660009081526005602052604090205494995092975090955093509150611557908790611b23565b600160a060020a038916600090815260056020908152604080832093909355600490522054611587908690611b23565b600160a060020a03808a1660009081526004602052604080822093909355908916815220546115b7908590611b3a565b600160a060020a0388166000908152600460205260409020556115da8382611970565b86600160a060020a031688600160a060020a03167fddf252ad1be2c89b69c2b068fc378daa952ba7f163c4a11628f55a4df523b3ef8460405161161f91815260200190565b60405180910390a35050505050505050565b600080600080600061164286610ea2565b600160a060020a038d1660009081526004602052604090205494995092975090955093509150611673908690611b23565b600160a060020a03808a16600090815260046020908152604080832094909455918a168152600590915220546116aa908390611b3a565b600160a060020a0388166000908152600560209081526040808320939093556004905220546115b7908590611b3a565b60008060008060006116eb86610ea2565b600160a060020a038d1660009081526004602052604090205494995092975090955093509150611587908690611b23565b600080600080600061172d86610ea2565b600160a060020a038d166000908152600560205260409020549499509297509095509350915061175e908790611b23565b600160a060020a038916600090815260056020908152604080832093909355600490522054611673908690611b23565b600081848411156117b55760405160e560020a62461bcd02815260040161050391906119af565b5060006117c28486611b23565b95945050505050565b60085460009081906a52b7d2dcc80cd2e4000000825b60075481101561192e5782600460006007848154811061180357611803611be4565b6000918252602080832090910154600160a060020a03168352820192909252604001902054118061186e575081600560006007848154811061184757611847611be4565b6000918252602080832090910154600160a060020a03168352820192909252604001902054115b1561188c575050600854936a52b7d2dcc80cd2e40000009350915050565b60046000600783815481106118a3576118a3611be4565b6000918252602080832090910154600160a060020a031683528201929092526040019020546118d29084611b23565b925060056000600783815481106118eb576118eb611be4565b6000918252602080832090910154600160a060020a0316835282019290925260400190205461191a9083611b23565b91508061192681611c18565b9150506117e1565b506a52b7d2dcc80cd2e40000006008546119489190611b52565b821015611967575050600854926a52b7d2dcc80cd2e400000092509050565b90939092509050565b8160085461197e9190611b23565b60085560095461198f908290611b3a565b6009555050565b6000602082840312156119a857600080fd5b5035919050565b600060208083528351808285015260005b818110156119dc578581018301518582016040015282016119c0565b818111156119ee576000604083870101525b50601f01601f1916929092016040019392505050565b8035600160a060020a0381168114611a1b57600080fd5b919050565b60008060408385031215611a3357600080fd5b611a3c83611a04565b946020939093013593505050565b600060208284031215611a5c57600080fd5b61066d82611a04565b600080600060608486031215611a7a57600080fd5b611a8384611a04565b9250611a9160208501611a04565b9150604084013590509250925092565b60008060408385031215611ab457600080fd5b8235915060208301358015158114611acb57600080fd5b809150509250929050565b60008060408385031215611ae957600080fd5b611af283611a04565b9150611b0060208401611a04565b90509250929050565b60e060020a634e487b710260009081526011600452602490fd5b600082821015611b3557611b35611b09565b500390565b60008219821115611b4d57611b4d611b09565b500190565b600082611b735760e060020a634e487b710260009081526012600452602490fd5b500490565b6020808252818101527f4f776e61626c653a2063616c6c6572206973206e6f7420746865206f776e6572604082015260600190565b6020808252601b908201527f4163636f756e7420697320616c7265616479206578636c756465640000000000604082015260600190565b60e060020a634e487b710260009081526032600452602490fd5b60e060020a634e487b710260009081526031600452602490fd5b6000600019821415611c2c57611c2c611b09565b5060010190565b6000816000190483118215151615611c4d57611c4d611b09565b500290565b6020808252601690820152605060020a75426f7473206e6f7420616c6c6f7765642068657265210260408201526060019056fe8be0079c531659141344cd1fd0a4f28419497f9722a3daafe3b4186f6b6457e0a26469706673582212200d54e3237f73acbcf80f21bc7710b5b229d4ac7b3b530f7ee2d0fa0a0c51870a64736f6c634300080b0033",
  "immutableReferences": {},
  "source": "// SPDX-License-Identifier: GPL-3.0-or-later\npragma solidity >=0.4.22 <0.9.0;\nimport './libraries/SafeMath.sol';\nimport './ERC20.sol';\n\n\ncontract ROIToken is ERC20 {\n    using SafeMath for uint;\n\n    mapping (address => uint256) public _rOwned;\n    mapping (address => uint256) public _tOwned;\n\n    mapping (address => bool) private _isExcluded;\n    address[] private _excluded;\n   \n    uint256 public constant MAX = ~uint256(0);  //10^26^26^26\n    \n    uint256 public constant _tTotal = 1 * 10**8 * 10**18;  //10^26\n    uint256 public _rTotal = (MAX - (MAX % _tTotal));\n    uint256 private _tFeeTotal;\n\n    string public constant name = 'ROI Token';\n    string public constant symbol = 'ROI';\n    uint8 public constant decimals = 18;\n    \n    uint256 public _maxTxAmount = 50000000 * 10**6 * 10**9;\n    mapping(address => bool) private _isBot;\n    address[] private _confirmedBots;\n    \n    constructor() {_rOwned[address(this)] = _rTotal;   emit Transfer(address(0), address(this), _tTotal);\n    }\n\n    function totalSupply() external view virtual override returns (uint256) { return _tTotal;}\n    function balanceOf(address account) public view override returns (uint256) {if (_isExcluded[account]) return _tOwned[account];  return tokenFromReflection(_rOwned[account]);}\n    function transfer(address recipient, uint256 amount) public override returns (bool) {_transfer(_msgSender(), recipient, amount);return true;}\n    function isExcluded(address account) public view returns (bool) {return _isExcluded[account];}\n    function totalFees() public view returns (uint256) {return _tFeeTotal;}\n    function setMaxTxPercent(uint256 maxTxPercent) external onlyOwner() {_maxTxAmount = ((_tTotal * maxTxPercent) / 10**2);}\n\n    function reflect(uint256 tAmount) public {\n        address sender = _msgSender();\n        require(!_isExcluded[sender], \"Excluded addresses cannot call this function\");\n        (uint256 rAmount,,,,) = _getValues(tAmount);\n        _rOwned[sender] = _rOwned[sender] - rAmount;\n        _rTotal = _rTotal - rAmount;\n        _tFeeTotal = _tFeeTotal + tAmount;\n    }\n\n    function reflectionFromToken(uint256 tAmount, bool deductTransferFee) public view returns(uint256) {\n        require(tAmount <= _tTotal, \"Amount must be less than supply\");\n        if (!deductTransferFee) {\n            (uint256 rAmount,,,,) = _getValues(tAmount);\n            return rAmount;\n        } else {\n            (,uint256 rTransferAmount,,,) = _getValues(tAmount);\n            return rTransferAmount;\n        }\n    }\n\n    function tokenFromReflection(uint256 rAmount) public view returns(uint256) {require(rAmount <= _rTotal, \"Amount must be less than total reflections\"); uint256 currentRate =  _getRate(); return (rAmount / currentRate);}\n\n    function excludeFromReward(address account) external onlyOwner() {\n        require(!_isExcluded[account], \"Account is already excluded\");\n        if(_rOwned[account] > 0) {\n            _tOwned[account] = tokenFromReflection(_rOwned[account]);\n        }\n        _isExcluded[account] = true;\n        _excluded.push(account);\n    }\n\n    function includeInReward(address account) external onlyOwner() {\n        require(_isExcluded[account], \"Account is already excluded\");\n        for (uint256 i = 0; i < _excluded.length; i++) {\n            if (_excluded[i] == account) {\n                _excluded[i] = _excluded[_excluded.length - 1];\n                _tOwned[account] = 0;\n                _isExcluded[account] = false;\n                _excluded.pop();\n                break;\n            }\n        }\n    }\n\n    function _transfer(address sender, address recipient, uint256 amount) internal override {\n        require(sender != address(0), \"ERC20: transfer from the zero address\");\n        require(recipient != address(0), \"ERC20: transfer to the zero address\");\n        require(amount > 0, \"Transfer amount must be greater than zero\");\n        \n        if(sender != owner() && recipient != owner()) {\n          require(amount <= _maxTxAmount, \"Transfer amount exceeds the maxTxAmount.\");\n          require(!_isBot[sender], 'Bots not allowed here!');\n          require(!_isBot[recipient], 'Bots not allowed here!');\n        }\n            \n        if (_isExcluded[sender] && !_isExcluded[recipient]) {\n            _transferFromExcluded(sender, recipient, amount);\n        } else if (!_isExcluded[sender] && _isExcluded[recipient]) {\n            _transferToExcluded(sender, recipient, amount);\n        } else if (!_isExcluded[sender] && !_isExcluded[recipient]) {\n            _transferStandard(sender, recipient, amount);\n        } else if (_isExcluded[sender] && _isExcluded[recipient]) {\n            _transferBothExcluded(sender, recipient, amount);\n        } else {\n            _transferStandard(sender, recipient, amount);\n        }\n    }\n\n    function _transferStandard(address sender, address recipient, uint256 tAmount) private {\n        (uint256 rAmount, uint256 rTransferAmount, uint256 rFee, uint256 tTransferAmount, uint256 tFee) = _getValues(tAmount);\n        _rOwned[sender] = _rOwned[sender] - rAmount;\n        _rOwned[recipient] = _rOwned[recipient] + rTransferAmount;       \n        _reflectFee(rFee, tFee);\n        emit Transfer(sender, recipient, tTransferAmount);\n    }\n\n    function _transferToExcluded(address sender, address recipient, uint256 tAmount) private {\n        (uint256 rAmount, uint256 rTransferAmount, uint256 rFee, uint256 tTransferAmount, uint256 tFee) = _getValues(tAmount);\n        _rOwned[sender] = _rOwned[sender] - rAmount;\n        _tOwned[recipient] = _tOwned[recipient] + tTransferAmount;\n        _rOwned[recipient] = _rOwned[recipient] + rTransferAmount;           \n        _reflectFee(rFee, tFee);\n        emit Transfer(sender, recipient, tTransferAmount);\n    }\n\n    function _transferFromExcluded(address sender, address recipient, uint256 tAmount) private {\n        (uint256 rAmount, uint256 rTransferAmount, uint256 rFee, uint256 tTransferAmount, uint256 tFee) = _getValues(tAmount);\n        _tOwned[sender] = _tOwned[sender] - tAmount;\n        _rOwned[sender] = _rOwned[sender] - rAmount;\n        _rOwned[recipient] = _rOwned[recipient] + rTransferAmount;   \n        _reflectFee(rFee, tFee);\n        emit Transfer(sender, recipient, tTransferAmount);\n    }\n\n    function _transferBothExcluded(address sender, address recipient, uint256 tAmount) private {\n        (uint256 rAmount, uint256 rTransferAmount, uint256 rFee, uint256 tTransferAmount, uint256 tFee) = _getValues(tAmount);\n        _tOwned[sender] = _tOwned[sender] - tAmount;\n        _rOwned[sender] = _rOwned[sender] - rAmount;\n        _tOwned[recipient] = _tOwned[recipient] + tTransferAmount;\n        _rOwned[recipient] = _rOwned[recipient] + rTransferAmount;        \n        _reflectFee(rFee, tFee);\n        emit Transfer(sender, recipient, tTransferAmount);\n    }\n\n    function _reflectFee(uint256 rFee, uint256 tFee) private {_rTotal = _rTotal - rFee;_tFeeTotal = _tFeeTotal + tFee;}\n\n    function _getValues(uint256 tAmount) private view returns (uint256, uint256, uint256, uint256, uint256) {\n        (uint256 tTransferAmount, uint256 tFee) = _getTValues(tAmount);\n        uint256 currentRate =  _getRate();\n        (uint256 rAmount, uint256 rTransferAmount, uint256 rFee) = _getRValues(tAmount, tFee, currentRate);\n        return (rAmount, rTransferAmount, rFee, tTransferAmount, tFee);\n    }\n\n    function _getTValues(uint256 tAmount) private pure returns (uint256, uint256) {\n        uint256 tFee = ((tAmount / 100) * 2);\n        uint256 tTransferAmount = tAmount - tFee;\n        return (tTransferAmount, tFee);\n    }\n\n    function _getRValues(uint256 tAmount, uint256 tFee, uint256 currentRate) private pure returns (uint256, uint256, uint256) {\n        uint256 rAmount = tAmount * currentRate;\n        uint256 rFee = tFee * currentRate;\n        uint256 rTransferAmount = rAmount - rFee;\n        return (rAmount, rTransferAmount, rFee);\n    }\n\n    function _getRate() private view returns(uint256) {(uint256 rSupply, uint256 tSupply) = _getCurrentSupply();return (rSupply / tSupply);}\n\n    function _getCurrentSupply() private view returns(uint256, uint256) {\n        uint256 rSupply = _rTotal;\n        uint256 tSupply = _tTotal;      \n        for (uint256 i = 0; i < _excluded.length; i++) {\n            if (_rOwned[_excluded[i]] > rSupply || _tOwned[_excluded[i]] > tSupply) return (_rTotal, _tTotal);\n            rSupply = rSupply - _rOwned[_excluded[i]];\n            tSupply = tSupply - _tOwned[_excluded[i]];\n        }\n        if (rSupply < (_rTotal / _tTotal)) return (_rTotal, _tTotal);\n        return (rSupply, tSupply);\n    }\n    \n    function isBot(address account) public view returns (bool) {return _isBot[account];}\n    \n    function _blacklistBot(address account) external onlyOwner() {\n        require(account != 0x10ED43C718714eb63d5aA57B78B54704E256024E, 'We cannot blacklist Pancakeswap');\n        require(!_isBot[account], \"Account is already blacklisted\");\n        _isBot[account] = true;\n        _confirmedBots.push(account);\n    }\n\n    function _amnestyBot(address account) external onlyOwner() {\n        require(_isBot[account], \"Account is not blacklisted\");\n        for (uint256 i = 0; i < _confirmedBots.length; i++) {\n            if (_confirmedBots[i] == account) {\n                _confirmedBots[i] = _confirmedBots[_confirmedBots.length - 1];\n                _isBot[account] = false;\n                _confirmedBots.pop();\n                break;\n            }\n        }\n    }\n}\n\n",
  "sourcePath": "G:\\roit\\backend\\contracts\\ROIToken.sol",
  "compiler": {
    "name": "solc",
    "version": "0.8.11+commit.d7f03943.Emscripten.clang"
  },
  "schemaVersion": "3.4.4",
  "updatedAt": "2022-02-10T21:54:54.641Z",
  "networkType": "ethereum",
  "devdoc": {
    "kind": "dev",
    "methods": {
      "getOwner()": {
        "details": "Returns the amount of tokens in existence."
      },
      "increaseAllowance(address,uint256)": {
        "details": "Returns the remaining number of tokens that `spender` will be allowed to spend on behalf of `owner` through {transferFrom}. This is* zero by default. This value changes when {approve} or {transferFrom} are called."
      },
      "owner()": {
        "details": "Initializes the contract setting the deployer as the initial owner."
      },
      "renounceOwnership()": {
        "details": "Throws if called by any account other than the owner."
      },
      "transferOwnership(address)": {
        "details": "Leaves the contract without owner. It will not be possible to call `onlyOwner` functions anymore. Can only be called by the current owner. NOTE: Renouncing ownership will leave the contract without an owner, thereby removing any functionality that is only available to the owner."
      }
    },
    "version": 1
  },
  "userdoc": {
    "kind": "user",
    "methods": {},
    "version": 1
  }
}