{
  "contractName": "StableIncomeSystem",
  "abi": [
    {
      "inputs": [
        {
          "internalType": "address payable",
          "name": "_primaryAddress",
          "type": "address"
        },
        {
          "internalType": "address payable",
          "name": "_secondaryAddress",
          "type": "address"
        }
      ],
      "stateMutability": "nonpayable",
      "type": "constructor"
    },
    {
      "anonymous": false,
      "inputs": [
        {
          "indexed": true,
          "internalType": "address",
          "name": "owner",
          "type": "address"
        },
        {
          "indexed": true,
          "internalType": "address",
          "name": "spender",
          "type": "address"
        },
        {
          "indexed": false,
          "internalType": "uint256",
          "name": "value",
          "type": "uint256"
        }
      ],
      "name": "Approval",
      "type": "event"
    },
    {
      "anonymous": false,
      "inputs": [
        {
          "indexed": true,
          "internalType": "address",
          "name": "account",
          "type": "address"
        },
        {
          "indexed": false,
          "internalType": "uint256",
          "name": "value",
          "type": "uint256"
        }
      ],
      "name": "Buy",
      "type": "event"
    },
    {
      "anonymous": false,
      "inputs": [
        {
          "indexed": false,
          "internalType": "address",
          "name": "investor",
          "type": "address"
        },
        {
          "indexed": false,
          "internalType": "uint256",
          "name": "amount",
          "type": "uint256"
        }
      ],
      "name": "OnInvest",
      "type": "event"
    },
    {
      "anonymous": false,
      "inputs": [
        {
          "indexed": false,
          "internalType": "address",
          "name": "investor",
          "type": "address"
        },
        {
          "indexed": false,
          "internalType": "uint256",
          "name": "amount",
          "type": "uint256"
        }
      ],
      "name": "OnReinvest",
      "type": "event"
    },
    {
      "anonymous": false,
      "inputs": [
        {
          "indexed": true,
          "internalType": "address",
          "name": "previousOwner",
          "type": "address"
        },
        {
          "indexed": true,
          "internalType": "address",
          "name": "newOwner",
          "type": "address"
        }
      ],
      "name": "OwnershipTransferred",
      "type": "event"
    },
    {
      "anonymous": false,
      "inputs": [
        {
          "indexed": true,
          "internalType": "address",
          "name": "account",
          "type": "address"
        },
        {
          "indexed": false,
          "internalType": "uint256",
          "name": "value",
          "type": "uint256"
        }
      ],
      "name": "Sell",
      "type": "event"
    },
    {
      "anonymous": false,
      "inputs": [
        {
          "indexed": true,
          "internalType": "address",
          "name": "from",
          "type": "address"
        },
        {
          "indexed": true,
          "internalType": "address",
          "name": "to",
          "type": "address"
        },
        {
          "indexed": false,
          "internalType": "uint256",
          "name": "value",
          "type": "uint256"
        }
      ],
      "name": "Transfer",
      "type": "event"
    },
    {
      "inputs": [],
      "name": "MAX",
      "outputs": [
        {
          "internalType": "uint256",
          "name": "",
          "type": "uint256"
        }
      ],
      "stateMutability": "view",
      "type": "function",
      "constant": true
    },
    {
      "inputs": [
        {
          "internalType": "address",
          "name": "account",
          "type": "address"
        }
      ],
      "name": "_amnestyBot",
      "outputs": [],
      "stateMutability": "nonpayable",
      "type": "function"
    },
    {
      "inputs": [
        {
          "internalType": "address",
          "name": "account",
          "type": "address"
        }
      ],
      "name": "_blacklistBot",
      "outputs": [],
      "stateMutability": "nonpayable",
      "type": "function"
    },
    {
      "inputs": [],
      "name": "_maxTxAmount",
      "outputs": [
        {
          "internalType": "uint256",
          "name": "",
          "type": "uint256"
        }
      ],
      "stateMutability": "view",
      "type": "function",
      "constant": true
    },
    {
      "inputs": [
        {
          "internalType": "address",
          "name": "",
          "type": "address"
        }
      ],
      "name": "_rOwned",
      "outputs": [
        {
          "internalType": "uint256",
          "name": "",
          "type": "uint256"
        }
      ],
      "stateMutability": "view",
      "type": "function",
      "constant": true
    },
    {
      "inputs": [],
      "name": "_rTotal",
      "outputs": [
        {
          "internalType": "uint256",
          "name": "",
          "type": "uint256"
        }
      ],
      "stateMutability": "view",
      "type": "function",
      "constant": true
    },
    {
      "inputs": [
        {
          "internalType": "address",
          "name": "",
          "type": "address"
        }
      ],
      "name": "_tOwned",
      "outputs": [
        {
          "internalType": "uint256",
          "name": "",
          "type": "uint256"
        }
      ],
      "stateMutability": "view",
      "type": "function",
      "constant": true
    },
    {
      "inputs": [],
      "name": "_tTotal",
      "outputs": [
        {
          "internalType": "uint256",
          "name": "",
          "type": "uint256"
        }
      ],
      "stateMutability": "view",
      "type": "function",
      "constant": true
    },
    {
      "inputs": [],
      "name": "activeInvested",
      "outputs": [
        {
          "internalType": "uint256",
          "name": "",
          "type": "uint256"
        }
      ],
      "stateMutability": "view",
      "type": "function",
      "constant": true
    },
    {
      "inputs": [
        {
          "internalType": "address",
          "name": "owner",
          "type": "address"
        },
        {
          "internalType": "address",
          "name": "spender",
          "type": "address"
        }
      ],
      "name": "allowance",
      "outputs": [
        {
          "internalType": "uint256",
          "name": "",
          "type": "uint256"
        }
      ],
      "stateMutability": "view",
      "type": "function",
      "constant": true
    },
    {
      "inputs": [
        {
          "internalType": "address",
          "name": "spender",
          "type": "address"
        },
        {
          "internalType": "uint256",
          "name": "value",
          "type": "uint256"
        }
      ],
      "name": "approve",
      "outputs": [
        {
          "internalType": "bool",
          "name": "",
          "type": "bool"
        }
      ],
      "stateMutability": "nonpayable",
      "type": "function"
    },
    {
      "inputs": [
        {
          "internalType": "address",
          "name": "account",
          "type": "address"
        }
      ],
      "name": "balanceOf",
      "outputs": [
        {
          "internalType": "uint256",
          "name": "",
          "type": "uint256"
        }
      ],
      "stateMutability": "view",
      "type": "function",
      "constant": true
    },
    {
      "inputs": [],
      "name": "decimals",
      "outputs": [
        {
          "internalType": "uint8",
          "name": "",
          "type": "uint8"
        }
      ],
      "stateMutability": "view",
      "type": "function",
      "constant": true
    },
    {
      "inputs": [
        {
          "internalType": "address",
          "name": "spender",
          "type": "address"
        },
        {
          "internalType": "uint256",
          "name": "subtractedValue",
          "type": "uint256"
        }
      ],
      "name": "decreaseAllowance",
      "outputs": [
        {
          "internalType": "bool",
          "name": "",
          "type": "bool"
        }
      ],
      "stateMutability": "nonpayable",
      "type": "function"
    },
    {
      "inputs": [
        {
          "internalType": "address",
          "name": "account",
          "type": "address"
        }
      ],
      "name": "excludeFromReward",
      "outputs": [],
      "stateMutability": "nonpayable",
      "type": "function"
    },
    {
      "inputs": [],
      "name": "getOwner",
      "outputs": [
        {
          "internalType": "address",
          "name": "",
          "type": "address"
        }
      ],
      "stateMutability": "view",
      "type": "function",
      "constant": true
    },
    {
      "inputs": [
        {
          "internalType": "address",
          "name": "account",
          "type": "address"
        }
      ],
      "name": "includeInReward",
      "outputs": [],
      "stateMutability": "nonpayable",
      "type": "function"
    },
    {
      "inputs": [
        {
          "internalType": "address",
          "name": "spender",
          "type": "address"
        },
        {
          "internalType": "uint256",
          "name": "addedValue",
          "type": "uint256"
        }
      ],
      "name": "increaseAllowance",
      "outputs": [
        {
          "internalType": "bool",
          "name": "",
          "type": "bool"
        }
      ],
      "stateMutability": "nonpayable",
      "type": "function"
    },
    {
      "inputs": [
        {
          "internalType": "address",
          "name": "",
          "type": "address"
        }
      ],
      "name": "investors",
      "outputs": [
        {
          "internalType": "address",
          "name": "addr",
          "type": "address"
        },
        {
          "internalType": "address",
          "name": "ref",
          "type": "address"
        },
        {
          "internalType": "uint256",
          "name": "totalDeposit",
          "type": "uint256"
        },
        {
          "internalType": "uint256",
          "name": "totalWithdraw",
          "type": "uint256"
        },
        {
          "internalType": "uint256",
          "name": "totalReinvest",
          "type": "uint256"
        }
      ],
      "stateMutability": "view",
      "type": "function",
      "constant": true
    },
    {
      "inputs": [
        {
          "internalType": "address",
          "name": "account",
          "type": "address"
        }
      ],
      "name": "isBot",
      "outputs": [
        {
          "internalType": "bool",
          "name": "",
          "type": "bool"
        }
      ],
      "stateMutability": "view",
      "type": "function",
      "constant": true
    },
    {
      "inputs": [
        {
          "internalType": "address",
          "name": "account",
          "type": "address"
        }
      ],
      "name": "isExcluded",
      "outputs": [
        {
          "internalType": "bool",
          "name": "",
          "type": "bool"
        }
      ],
      "stateMutability": "view",
      "type": "function",
      "constant": true
    },
    {
      "inputs": [],
      "name": "name",
      "outputs": [
        {
          "internalType": "string",
          "name": "",
          "type": "string"
        }
      ],
      "stateMutability": "view",
      "type": "function",
      "constant": true
    },
    {
      "inputs": [],
      "name": "owner",
      "outputs": [
        {
          "internalType": "address",
          "name": "",
          "type": "address"
        }
      ],
      "stateMutability": "view",
      "type": "function",
      "constant": true
    },
    {
      "inputs": [],
      "name": "primaryBenificiary",
      "outputs": [
        {
          "internalType": "address payable",
          "name": "",
          "type": "address"
        }
      ],
      "stateMutability": "view",
      "type": "function",
      "constant": true
    },
    {
      "inputs": [
        {
          "internalType": "uint256",
          "name": "tAmount",
          "type": "uint256"
        }
      ],
      "name": "reflect",
      "outputs": [],
      "stateMutability": "nonpayable",
      "type": "function"
    },
    {
      "inputs": [
        {
          "internalType": "uint256",
          "name": "tAmount",
          "type": "uint256"
        },
        {
          "internalType": "bool",
          "name": "deductTransferFee",
          "type": "bool"
        }
      ],
      "name": "reflectionFromToken",
      "outputs": [
        {
          "internalType": "uint256",
          "name": "",
          "type": "uint256"
        }
      ],
      "stateMutability": "view",
      "type": "function",
      "constant": true
    },
    {
      "inputs": [],
      "name": "renounceOwnership",
      "outputs": [],
      "stateMutability": "nonpayable",
      "type": "function"
    },
    {
      "inputs": [],
      "name": "secondaryBenificiary",
      "outputs": [
        {
          "internalType": "address payable",
          "name": "",
          "type": "address"
        }
      ],
      "stateMutability": "view",
      "type": "function",
      "constant": true
    },
    {
      "inputs": [
        {
          "internalType": "uint256",
          "name": "maxTxPercent",
          "type": "uint256"
        }
      ],
      "name": "setMaxTxPercent",
      "outputs": [],
      "stateMutability": "nonpayable",
      "type": "function"
    },
    {
      "inputs": [],
      "name": "symbol",
      "outputs": [
        {
          "internalType": "string",
          "name": "",
          "type": "string"
        }
      ],
      "stateMutability": "view",
      "type": "function",
      "constant": true
    },
    {
      "inputs": [
        {
          "internalType": "uint256",
          "name": "rAmount",
          "type": "uint256"
        }
      ],
      "name": "tokenFromReflection",
      "outputs": [
        {
          "internalType": "uint256",
          "name": "",
          "type": "uint256"
        }
      ],
      "stateMutability": "view",
      "type": "function",
      "constant": true
    },
    {
      "inputs": [],
      "name": "totalFees",
      "outputs": [
        {
          "internalType": "uint256",
          "name": "",
          "type": "uint256"
        }
      ],
      "stateMutability": "view",
      "type": "function",
      "constant": true
    },
    {
      "inputs": [],
      "name": "totalInvested",
      "outputs": [
        {
          "internalType": "uint256",
          "name": "",
          "type": "uint256"
        }
      ],
      "stateMutability": "view",
      "type": "function",
      "constant": true
    },
    {
      "inputs": [],
      "name": "totalReferralReward",
      "outputs": [
        {
          "internalType": "uint256",
          "name": "",
          "type": "uint256"
        }
      ],
      "stateMutability": "view",
      "type": "function",
      "constant": true
    },
    {
      "inputs": [],
      "name": "totalReinvested",
      "outputs": [
        {
          "internalType": "uint256",
          "name": "",
          "type": "uint256"
        }
      ],
      "stateMutability": "view",
      "type": "function",
      "constant": true
    },
    {
      "inputs": [],
      "name": "totalSupply",
      "outputs": [
        {
          "internalType": "uint256",
          "name": "",
          "type": "uint256"
        }
      ],
      "stateMutability": "view",
      "type": "function",
      "constant": true
    },
    {
      "inputs": [],
      "name": "totalWithdrawal",
      "outputs": [
        {
          "internalType": "uint256",
          "name": "",
          "type": "uint256"
        }
      ],
      "stateMutability": "view",
      "type": "function",
      "constant": true
    },
    {
      "inputs": [
        {
          "internalType": "address",
          "name": "recipient",
          "type": "address"
        },
        {
          "internalType": "uint256",
          "name": "amount",
          "type": "uint256"
        }
      ],
      "name": "transfer",
      "outputs": [
        {
          "internalType": "bool",
          "name": "",
          "type": "bool"
        }
      ],
      "stateMutability": "nonpayable",
      "type": "function"
    },
    {
      "inputs": [
        {
          "internalType": "address",
          "name": "from",
          "type": "address"
        },
        {
          "internalType": "address",
          "name": "to",
          "type": "address"
        },
        {
          "internalType": "uint256",
          "name": "value",
          "type": "uint256"
        }
      ],
      "name": "transferFrom",
      "outputs": [
        {
          "internalType": "bool",
          "name": "",
          "type": "bool"
        }
      ],
      "stateMutability": "nonpayable",
      "type": "function"
    },
    {
      "inputs": [
        {
          "internalType": "address",
          "name": "newOwner",
          "type": "address"
        }
      ],
      "name": "transferOwnership",
      "outputs": [],
      "stateMutability": "nonpayable",
      "type": "function"
    },
    {
      "inputs": [
        {
          "internalType": "address payable",
          "name": "newAddress",
          "type": "address"
        }
      ],
      "name": "changePrimaryBenificiary",
      "outputs": [],
      "stateMutability": "nonpayable",
      "type": "function"
    },
    {
      "inputs": [
        {
          "internalType": "address payable",
          "name": "newAddress",
          "type": "address"
        }
      ],
      "name": "changeSecondaryBenificiary",
      "outputs": [],
      "stateMutability": "nonpayable",
      "type": "function"
    },
    {
      "inputs": [
        {
          "internalType": "address",
          "name": "_ref",
          "type": "address"
        }
      ],
      "name": "invest",
      "outputs": [],
      "stateMutability": "payable",
      "type": "function",
      "payable": true
    },
    {
      "inputs": [],
      "name": "getBalance",
      "outputs": [
        {
          "internalType": "uint256",
          "name": "",
          "type": "uint256"
        }
      ],
      "stateMutability": "view",
      "type": "function",
      "constant": true
    },
    {
      "inputs": [
        {
          "internalType": "address",
          "name": "addr",
          "type": "address"
        }
      ],
      "name": "getInvestorRefs",
      "outputs": [
        {
          "internalType": "uint256",
          "name": "",
          "type": "uint256"
        },
        {
          "internalType": "uint256",
          "name": "",
          "type": "uint256"
        },
        {
          "internalType": "uint256",
          "name": "",
          "type": "uint256"
        },
        {
          "internalType": "uint256",
          "name": "",
          "type": "uint256"
        },
        {
          "internalType": "uint256",
          "name": "",
          "type": "uint256"
        }
      ],
      "stateMutability": "view",
      "type": "function",
      "constant": true
    },
    {
      "inputs": [
        {
          "internalType": "address",
          "name": "addr",
          "type": "address"
        }
      ],
      "name": "getDividends",
      "outputs": [
        {
          "internalType": "uint256",
          "name": "",
          "type": "uint256"
        },
        {
          "internalType": "bool",
          "name": "",
          "type": "bool"
        }
      ],
      "stateMutability": "view",
      "type": "function",
      "constant": true
    },
    {
      "inputs": [
        {
          "internalType": "address",
          "name": "addr",
          "type": "address"
        }
      ],
      "name": "calculateDividendsAndautoReinvest",
      "outputs": [],
      "stateMutability": "nonpayable",
      "type": "function"
    },
    {
      "inputs": [
        {
          "internalType": "address",
          "name": "addr",
          "type": "address"
        }
      ],
      "name": "getInvestments",
      "outputs": [
        {
          "internalType": "uint256[]",
          "name": "",
          "type": "uint256[]"
        },
        {
          "internalType": "uint256[]",
          "name": "",
          "type": "uint256[]"
        },
        {
          "internalType": "uint256[]",
          "name": "",
          "type": "uint256[]"
        },
        {
          "internalType": "bool[]",
          "name": "",
          "type": "bool[]"
        }
      ],
      "stateMutability": "view",
      "type": "function",
      "constant": true
    },
    {
      "inputs": [],
      "name": "withdraw",
      "outputs": [],
      "stateMutability": "nonpayable",
      "type": "function"
    },
    {
      "inputs": [],
      "name": "getContractInformation",
      "outputs": [
        {
          "internalType": "uint256",
          "name": "",
          "type": "uint256"
        },
        {
          "internalType": "uint256",
          "name": "",
          "type": "uint256"
        },
        {
          "internalType": "uint256",
          "name": "",
          "type": "uint256"
        },
        {
          "internalType": "uint256",
          "name": "",
          "type": "uint256"
        },
        {
          "internalType": "uint256",
          "name": "",
          "type": "uint256"
        },
        {
          "internalType": "uint256",
          "name": "",
          "type": "uint256"
        }
      ],
      "stateMutability": "view",
      "type": "function",
      "constant": true
    }
  ],
  "bytecode": "0x60806040526200001d6a52b7d2dcc80cd2e40000006000196200021b565b6200002b9060001962000257565b600955690a968163f0a57b400000600b553480156200004957600080fd5b5060405162003af838038062003af88339810160408190526200006c91620002b3565b600160009081556200008664010000000062000217810204565b60018054600160a060020a031916600160a060020a038316908117909155604051919250906000907f8be0079c531659141344cd1fd0a4f28419497f9722a3daafe3b4186f6b6457e0908290a350600954306000818152600560205260408082209390935591519091907fddf252ad1be2c89b69c2b068fc378daa952ba7f163c4a11628f55a4df523b3ef906200012b906a52b7d2dcc80cd2e4000000815260200190565b60405180910390a3600160a060020a03821615801590620001545750600160a060020a03811615155b620001e5576040517f08c379a000000000000000000000000000000000000000000000000000000000815260206004820152602b60248201527f5072696d617279206f72205365636f6e6461727920616464726573732063616e60448201527f6e6f74206265206e756c6c000000000000000000000000000000000000000000606482015260840160405180910390fd5b600e8054600160a060020a03938416600160a060020a031991821617909155600f8054929093169116179055620002eb565b3390565b60008262000252577f4e487b7100000000000000000000000000000000000000000000000000000000600052601260045260246000fd5b500690565b60008282101562000291577f4e487b7100000000000000000000000000000000000000000000000000000000600052601160045260246000fd5b500390565b8051600160a060020a0381168114620002ae57600080fd5b919050565b60008060408385031215620002c757600080fd5b620002d28362000296565b9150620002e26020840162000296565b90509250929050565b6137fd80620002fb6000396000f3fe60806040526004361061023c5760e060020a600035046303f9c7938114610241578063053ab1821461025657806306fdde0314610276578063095ea7b3146102c45780630cfc15f9146102f457806312065fe01461032f57806313114a9d1461034357806318160ddd1461035857806323b872dd146103765780632d838119146103965780633075c8d6146103b6578063313ce567146104345780633685d4191461045b578063395093511461047b5780633b7e6d4a1461049b5780633bbac579146104c85780633ccfd60b146105015780634549b0391461051657806345e0b9d4146105365780634634d81c1461054c5780635216aeec1461058157806352390c02146105975780635e7dc418146105b75780636b56ee02146105ef5780636cbf7bf2146106055780636f7bc9be1461062557806370a08231146106ae578063715018a6146106ce578063786c8d11146106e35780637d1db4a51461070357806380f3c22014610719578063893d20e8146107395780638ad61c551461074e5780638da5cb5b1461076457806395d89b4114610779578063a327ed93146107ab578063a457c2d7146107cb578063a9059cbb146107eb578063a91f88031461080b578063aa37d61014610821578063af465a2714610837578063cba0e99614610856578063d49d51811461088f578063d543dbeb146108a5578063dd62ed3e146108c5578063f2fde38b1461090b578063f592e82f1461092b578063f6dfdad11461094b578063f79d86ec1461099c578063fc73c86e146109bc575b600080fd5b61025461024f366004613332565b6109ec565b005b34801561026257600080fd5b5061025461027136600461334f565b610a27565b34801561028257600080fd5b506102ae60405180604001604052806009815260200160b960020a682927a4902a37b5b2b70281525081565b6040516102bb9190613368565b60405180910390f35b3480156102d057600080fd5b506102e46102df3660046133bd565b610b1d565b60405190151581526020016102bb565b34801561030057600080fd5b5061032161030f366004613332565b60056020526000908152604090205481565b6040519081526020016102bb565b34801561033b57600080fd5b503031610321565b34801561034f57600080fd5b50600a54610321565b34801561036457600080fd5b506a52b7d2dcc80cd2e4000000610321565b34801561038257600080fd5b506102e46103913660046133e9565b610b34565b3480156103a257600080fd5b506103216103b136600461334f565b610b85565b3480156103c257600080fd5b5061040c6103d1366004613332565b600160a060020a0316600090815260156020526040902060028101546003820154600483015460058401546006909401549294919390929091565b604080519586526020860194909452928401919091526060830152608082015260a0016102bb565b34801561044057600080fd5b50610449601281565b60405160ff90911681526020016102bb565b34801561046757600080fd5b50610254610476366004613332565b610c0f565b34801561048757600080fd5b506102e46104963660046133bd565b610d9c565b3480156104a757600080fd5b506103216104b6366004613332565b60066020526000908152604090205481565b3480156104d457600080fd5b506102e46104e3366004613332565b600160a060020a03166000908152600c602052604090205460ff1690565b34801561050d57600080fd5b50610254610dd2565b34801561052257600080fd5b50610321610531366004613438565b611069565b34801561054257600080fd5b5061032160095481565b34801561055857600080fd5b5061056c610567366004613332565b611100565b604080519283529015156020830152016102bb565b34801561058d57600080fd5b5061032160105481565b3480156105a357600080fd5b506102546105b2366004613332565b611253565b3480156105c357600080fd5b50600f546105d790600160a060020a031681565b604051600160a060020a0390911681526020016102bb565b3480156105fb57600080fd5b5061032160125481565b34801561061157600080fd5b50610254610620366004613332565b61137c565b34801561063157600080fd5b5061067b610640366004613332565b60156020526000908152604090208054600182015460078301546008840154600990940154600160a060020a03938416949390921692909185565b60408051600160a060020a039687168152959094166020860152928401919091526060830152608082015260a0016102bb565b3480156106ba57600080fd5b506103216106c9366004613332565b6113f4565b3480156106da57600080fd5b50610254611453565b3480156106ef57600080fd5b506102546106fe366004613332565b6114b8565b34801561070f57600080fd5b50610321600b5481565b34801561072557600080fd5b50610254610734366004613332565b611627565b34801561074557600080fd5b506105d761169f565b34801561075a57600080fd5b5061032160115481565b34801561077057600080fd5b506105d76116ae565b34801561078557600080fd5b506102ae60405180604001604052806003815260200160e860020a62524f490281525081565b3480156107b757600080fd5b506102546107c6366004613332565b6116bd565b3480156107d757600080fd5b506102e46107e63660046133bd565b611978565b3480156107f757600080fd5b506102e46108063660046133bd565b6119ae565b34801561081757600080fd5b5061032160145481565b34801561082d57600080fd5b5061032160135481565b34801561084357600080fd5b506103216a52b7d2dcc80cd2e400000081565b34801561086257600080fd5b506102e4610871366004613332565b600160a060020a031660009081526007602052604090205460ff1690565b34801561089b57600080fd5b5061032160001981565b3480156108b157600080fd5b506102546108c036600461334f565b6119bb565b3480156108d157600080fd5b506103216108e0366004613468565b600160a060020a03918216600090815260036020908152604080832093909416825291909152205490565b34801561091757600080fd5b50610254610926366004613332565b611a0f565b34801561093757600080fd5b50600e546105d790600160a060020a031681565b34801561095757600080fd5b5061096f601054601154601254601354601454303195565b604080519687526020870195909552938501929092526060840152608083015260a082015260c0016102bb565b3480156109a857600080fd5b506102546109b7366004613332565b611a45565b3480156109c857600080fd5b506109dc6109d7366004613332565b611bcf565b6040516102bb94939291906134d1565b6109f7338234611f58565b15610a24576000805160206137888339815191523334604051610a1b929190613551565b60405180910390a15b50565b3360008181526007602052604090205460ff1615610aa75760405160e560020a62461bcd02815260206004820152602c60248201527f4578636c75646564206164647265737365732063616e6e6f742063616c6c2074604482015260a160020a6b3434b990333ab731ba34b7b70260648201526084015b60405180910390fd5b6000610ab283612270565b505050600160a060020a038416600090815260056020526040902054919250610add91839150613584565b600160a060020a038316600090815260056020526040902055600954610b04908290613584565b600955600a54610b1590849061359b565b600a55505050565b6000610b2a3384846122bc565b5060015b92915050565b6000610b41848484612343565b600160a060020a038416600090815260036020908152604080832033808552925290912054610b7b918691610b7690866126f4565b6122bc565b5060019392505050565b6000600954821115610bf25760405160e560020a62461bcd02815260206004820152602a60248201527f416d6f756e74206d757374206265206c657373207468616e20746f74616c2072604482015260b060020a6965666c656374696f6e73026064820152608401610a9e565b6000610bfc612736565b9050610c0881846135b3565b9392505050565b600154600160a060020a03163314610c3c5760405160e560020a62461bcd028152600401610a9e906135f3565b600160a060020a03811660009081526007602052604090205460ff16610c775760405160e560020a62461bcd028152600401610a9e90613628565b60005b600854811015610d985781600160a060020a031660088281548110610ca157610ca16135d9565b600091825260209091200154600160a060020a03161415610d865760088054610ccc90600190613584565b81548110610cdc57610cdc6135d9565b60009182526020909120015460088054600160a060020a039092169183908110610d0857610d086135d9565b60009182526020808320919091018054600160a060020a031916600160a060020a039485161790559184168152600682526040808220829055600790925220805460ff191690556008805480610d6057610d6061365f565b60008281526020902081016000199081018054600160a060020a03191690550190555050565b80610d9081613679565b915050610c7a565b5050565b336000818152600360209081526040808320600160a060020a03871684529091528120549091610b2a918590610b769086612759565b60026000541415610e285760405160e560020a62461bcd02815260206004820152601f60248201527f5265656e7472616e637947756172643a207265656e7472616e742063616c6c006044820152606401610a9e565b6002600055610e36336116bd565b6000610e4133611100565b50905066470de4df820000811015610ead5760405160e560020a62461bcd028152602060048201526024808201527f43616e6e6f74207769746864726177206c657373207468616e20302e3032204d604482015260e060020a6361746963026064820152608401610a9e565b6000610ec66103e8610ec08460fa6127bb565b90612840565b9050610ed23382612882565b506000610edf83836129d6565b601254909150610eef9082612759565b6012553360009081526015602052604081206008018290555b336000908152601560205260409020600a015481101561103057336000908152601560205260409020600a01805442919083908110610f4957610f496135d9565b6000918252602080832060046007909302019190910192909255338152601590915260409020600a01805482908110610f8457610f846135d9565b9060005260206000209060070201600501546015600033600160a060020a0316600160a060020a03168152602001908152602001600020600a018281548110610fcf57610fcf6135d9565b6000918252602080832060066007909302019190910192909255338152601590915260408120600a0180548390811061100a5761100a6135d9565b60009182526020909120600560079092020101558061102881613679565b915050610f08565b50604051339082156108fc029083906000818181858888f1935050505015801561105e573d6000803e3d6000fd5b505060016000555050565b60006a52b7d2dcc80cd2e40000008311156110c95760405160e560020a62461bcd02815260206004820152601f60248201527f416d6f756e74206d757374206265206c657373207468616e20737570706c79006044820152606401610a9e565b816110e75760006110d984612270565b50929450610b2e9350505050565b60006110f284612270565b50919450610b2e9350505050565b600160a060020a038116600090815260156020526040812081908180805b600a840154811015611247576000429050600061116462278d0087600a01858154811061114d5761114d6135d9565b600091825260209091206007909102015490612759565b9050808210611171578091505b60006111cc87600a01858154811061118b5761118b6135d9565b9060005260206000209060070201600101546032858a600a0188815481106111b5576111b56135d9565b9060005260206000209060070201600401546129fb565b90506111d88682612759565b955060006201518061121989600a0187815481106111f8576111f86135d9565b906000526020600020906007020160020154866129d690919063ffffffff16565b61122391906135b3565b9050801561123057600195505b50505050808061123f90613679565b91505061111e565b50909590945092505050565b600154600160a060020a031633146112805760405160e560020a62461bcd028152600401610a9e906135f3565b600160a060020a03811660009081526007602052604090205460ff16156112bc5760405160e560020a62461bcd028152600401610a9e90613628565b600160a060020a0381166000908152600560205260409020541561131657600160a060020a0381166000908152600560205260409020546112fc90610b85565b600160a060020a0382166000908152600660205260409020555b600160a060020a03166000818152600760205260408120805460ff191660019081179091556008805491820181559091527ff3f7a9fe364faab93b216da50a3214154f22a0a2b415b23a84c8169e8b636ee3018054600160a060020a0319169091179055565b600154600160a060020a031633146113a95760405160e560020a62461bcd028152600401610a9e906135f3565b600160a060020a0381166113d25760405160e560020a62461bcd028152600401610a9e90613694565b600e8054600160a060020a031916600160a060020a0392909216919091179055565b600160a060020a03811660009081526007602052604081205460ff16156114315750600160a060020a031660009081526006602052604090205490565b600160a060020a038216600090815260056020526040902054610b2e90610b85565b600154600160a060020a031633146114805760405160e560020a62461bcd028152600401610a9e906135f3565b600154604051600091600160a060020a0316906000805160206137a8833981519152908390a360018054600160a060020a0319169055565b600154600160a060020a031633146114e55760405160e560020a62461bcd028152600401610a9e906135f3565b7310ed43c718714eb63d5aa57b78b54704e256024e600160a060020a03821614156115555760405160e560020a62461bcd02815260206004820152601f60248201527f57652063616e6e6f7420626c61636b6c6973742050616e63616b6573776170006044820152606401610a9e565b600160a060020a0381166000908152600c602052604090205460ff16156115c15760405160e560020a62461bcd02815260206004820152601e60248201527f4163636f756e7420697320616c726561647920626c61636b6c697374656400006044820152606401610a9e565b600160a060020a03166000818152600c60205260408120805460ff19166001908117909155600d805491820181559091527fd7b6990105719101dabeb77144f2a3385c8033acd3af97e9423a695e81ad1eb5018054600160a060020a0319169091179055565b600154600160a060020a031633146116545760405160e560020a62461bcd028152600401610a9e906135f3565b600160a060020a03811661167d5760405160e560020a62461bcd028152600401610a9e90613694565b600f8054600160a060020a031916600160a060020a0392909216919091179055565b60006116a96116ae565b905090565b600154600160a060020a031690565b600160a060020a0381166000908152601560205260408120905b600a8201548110156119735781600a0181815481106116f8576116f86135d9565b600091825260209091206003600790920201015460ff161561171957611961565b6000429050600061173c62278d0085600a01858154811061114d5761114d6135d9565b90508082106117c657809150600184600a01848154811061175f5761175f6135d9565b906000526020600020906007020160030160006101000a81548160ff0219169083151502179055506117c284600a01848154811061179f5761179f6135d9565b9060005260206000209060070201600101546011546129d690919063ffffffff16565b6011555b600061180a85600a0185815481106117e0576117e06135d9565b90600052602060002090600702016001015460328588600a0188815481106111b5576111b56135d9565b90508085600a018581548110611822576118226135d9565b90600052602060002090600702016005018190555060006201518061185587600a0187815481106111f8576111f86135d9565b61185f91906135b3565b90508061186f5750505050611961565b60006118826103e8610ec08560fa6127bb565b905061188e8882612882565b156118bb5760008051602061378883398151915288826040516118b2929190613551565b60405180910390a15b6118f48188600a0188815481106118d4576118d46135d9565b9060005260206000209060070201600501546129d690919063ffffffff16565b87600a018781548110611909576119096135d9565b600091825260209091206005600790920201015560135461192a9082612759565b6013819055508487600a018781548110611946576119466135d9565b90600052602060002090600702016002018190555050505050505b8061196b81613679565b9150506116d7565b505050565b336000818152600360209081526040808320600160a060020a03871684529091528120549091610b2a918590610b7690866126f4565b6000610b2a338484612343565b600154600160a060020a031633146119e85760405160e560020a62461bcd028152600401610a9e906135f3565b60646119ff826a52b7d2dcc80cd2e40000006136c7565b611a0991906135b3565b600b5550565b600154600160a060020a03163314611a3c5760405160e560020a62461bcd028152600401610a9e906135f3565b610a2481612a3f565b600154600160a060020a03163314611a725760405160e560020a62461bcd028152600401610a9e906135f3565b600160a060020a0381166000908152600c602052604090205460ff16611add5760405160e560020a62461bcd02815260206004820152601a60248201527f4163636f756e74206973206e6f7420626c61636b6c69737465640000000000006044820152606401610a9e565b60005b600d54811015610d985781600160a060020a0316600d8281548110611b0757611b076135d9565b600091825260209091200154600160a060020a03161415611bbd57600d8054611b3290600190613584565b81548110611b4257611b426135d9565b600091825260209091200154600d8054600160a060020a039092169183908110611b6e57611b6e6135d9565b60009182526020808320919091018054600160a060020a031916600160a060020a039485161790559184168152600c90915260409020805460ff19169055600d805480610d6057610d6061365f565b80611bc781613679565b915050611ae0565b600160a060020a0381166000908152601560205260408120600a810154606092839283928392906001604060020a03811115611c0d57611c0d6136e6565b604051908082528060200260200182016040528015611c36578160200160208202803683370190505b50600a8301549091506000906001604060020a03811115611c5957611c596136e6565b604051908082528060200260200182016040528015611c82578160200160208202803683370190505b50600a8401549091506000906001604060020a03811115611ca557611ca56136e6565b604051908082528060200260200182016040528015611cce578160200160208202803683370190505b50600a8501549091506000906001604060020a03811115611cf157611cf16136e6565b604051908082528060200260200182016040528015611d1a578160200160208202803683370190505b50905060005b600a860154811015611f475785600a018181548110611d4157611d416135d9565b90600052602060002090600702016000015460001415611da15760405160e560020a62461bcd0281526020600482015260156024820152605860020a7477726f6e6720696e766573746d656e742064617465026044820152606401610a9e565b85600a018181548110611db657611db66135d9565b906000526020600020906007020160060154838281518110611dda57611dda6135d9565b60200260200101818152505085600a018181548110611dfb57611dfb6135d9565b906000526020600020906007020160000154858281518110611e1f57611e1f6135d9565b60200260200101818152505085600a018181548110611e4057611e406135d9565b906000526020600020906007020160010154848281518110611e6457611e646135d9565b60200260200101818152505085600a018181548110611e8557611e856135d9565b600091825260209091206003600790920201015460ff1615611eca576001828281518110611eb557611eb56135d9565b91151560209283029190910190910152611f35565b6000828281518110611ede57611ede6135d9565b91151560209283029190910190910152611f0a62278d0087600a01838154811061114d5761114d6135d9565b4210611f35576001828281518110611f2457611f246135d9565b911515602092830291909101909101525b80611f3f81613679565b915050611d20565b509299919850965090945092505050565b600066b1a2bc2ec50000341015611fb45760405160e560020a62461bcd02815260206004820181905260248201527f4d696e696d756d20696e766573746d656e7420697320302e3035204d617469636044820152606401610a9e565b83600160a060020a031683600160a060020a0316141561202b5760405160e560020a62461bcd02815260206004820152602660248201527f52656620616464726573732063616e6e6f742062652073616d65207769746820604482015260d160020a6531b0b63632b9026064820152608401610a9e565b600160a060020a038481166000908152601560205260409020541661205557612055848484612af4565b600160a060020a03841660009081526015602052604090206007015461207b9083612759565b600160a060020a0385166000908152601560205260409020600701556010546120a49083612759565b6010556011546120b49083612759565b601155600160a060020a0384166000908152601560209081526040808320815160e08101835242808252818501888152938201818152606083018781526080840192835260a0840188815260c08501898152600a909601805460018082018355918b52989099209451600790980290940196875594519686019690965594516002850155915160038401805460ff191691151591909117905592516004830155516005820155905160069091015561216b82612c1f565b6000612176306113f4565b90508281106121f05760405160e060020a63a9059cbb028152309063a9059cbb906121a79088908790600401613551565b6020604051808303816000875af11580156121c6573d6000803e3d6000fd5b505050506040513d601f19601f820116820180604052508101906121ea9190613700565b50612265565b828110156122655760405160e060020a63a9059cbb028152309063a9059cbb906122209088908590600401613551565b6020604051808303816000875af115801561223f573d6000803e3d6000fd5b505050506040513d601f19601f820116820180604052508101906122639190613700565b505b506001949350505050565b600080600080600080600061228488612ce6565b915091506000612292612736565b905060008060006122a48c8686612d19565b919e909d50909b509599509397509395505050505050565b600160a060020a0382166122cf57600080fd5b600160a060020a0383166122e257600080fd5b600160a060020a0383811660008181526003602090815260408083209487168084529482529182902085905590518481527f8c5be1e5ebec7d5bd14f71427d1e84f3dd0314c0f7b2291e5b200ac8c7c3b925910160405180910390a3505050565b600160a060020a0383166123ad5760405160e560020a62461bcd02815260206004820152602560248201527f45524332303a207472616e736665722066726f6d20746865207a65726f206164604482015260d860020a646472657373026064820152608401610a9e565b600160a060020a0382166124155760405160e560020a62461bcd02815260206004820152602360248201527f45524332303a207472616e7366657220746f20746865207a65726f2061646472604482015260e860020a62657373026064820152608401610a9e565b6000811161247d5760405160e560020a62461bcd02815260206004820152602960248201527f5472616e7366657220616d6f756e74206d757374206265206772656174657220604482015260b860020a687468616e207a65726f026064820152608401610a9e565b6124856116ae565b600160a060020a031683600160a060020a0316141580156124bf57506124a96116ae565b600160a060020a031682600160a060020a031614155b156125a557600b5481111561252d5760405160e560020a62461bcd02815260206004820152602860248201527f5472616e7366657220616d6f756e74206578636565647320746865206d617854604482015260c160020a673c20b6b7bab73a17026064820152608401610a9e565b600160a060020a0383166000908152600c602052604090205460ff16156125695760405160e560020a62461bcd028152600401610a9e9061371d565b600160a060020a0382166000908152600c602052604090205460ff16156125a55760405160e560020a62461bcd028152600401610a9e9061371d565b600160a060020a03831660009081526007602052604090205460ff1680156125e65750600160a060020a03821660009081526007602052604090205460ff16155b156125f657611973838383612d55565b600160a060020a03831660009081526007602052604090205460ff161580156126375750600160a060020a03821660009081526007602052604090205460ff165b1561264757611973838383612e71565b600160a060020a03831660009081526007602052604090205460ff161580156126895750600160a060020a03821660009081526007602052604090205460ff16155b1561269957611973838383612f1a565b600160a060020a03831660009081526007602052604090205460ff1680156126d95750600160a060020a03821660009081526007602052604090205460ff165b156126e957611973838383612f5c565b611973838383612f1a565b6000610c0883836040518060400160405280601e81526020017f536166654d6174683a207375627472616374696f6e206f766572666c6f770000815250612fce565b6000806000612743613002565b909250905061275281836135b3565b9250505090565b600080612766838561359b565b905083811015610c085760405160e560020a62461bcd02815260206004820152601b60248201527f536166654d6174683a206164646974696f6e206f766572666c6f7700000000006044820152606401610a9e565b6000826127ca57506000610b2e565b60006127d683856136c7565b9050826127e385836135b3565b14610c085760405160e560020a62461bcd02815260206004820152602160248201527f536166654d6174683a206d756c7469706c69636174696f6e206f766572666c6f604482015260f860020a6077026064820152608401610a9e565b6000610c0883836040518060400160405280601a81526020017f536166654d6174683a206469766973696f6e206279207a65726f0000000000008152506131a7565b600160a060020a0382166000908152601560205260408120600701546128a89083612759565b600160a060020a03841660009081526015602052604090206007810191909155600901546128d69083612759565b600160a060020a0384166000908152601560205260409020600901556013546128ff9083612759565b601355600160a060020a0383166000908152601560209081526040808320815160e08101835242808252818501888152938201818152606083018781526080840192835260a0840188815260c08501898152600a909601805460018082018355918b52989099209451600790980290940196875594519686019690965594516002850155915160038401805460ff19169115159190911790559251600483015551600582015590516006909101556011546129ba9083612759565b6011556010546129ca9083612759565b601055610b2a826131d8565b60008282106129e757506000610b2e565b60006129f38385613584565b949350505050565b600062015180612a0b8385613584565b6103e8612a1887896136c7565b612a2291906135b3565b612a2c91906136c7565b612a3691906135b3565b95945050505050565b600160a060020a038116612aaa5760405160e560020a62461bcd02815260206004820152602660248201527f4f776e61626c653a206e6577206f776e657220697320746865207a65726f2061604482015260d060020a65646472657373026064820152608401610a9e565b600154604051600160a060020a038084169216906000805160206137a883398151915290600090a360018054600160a060020a031916600160a060020a0392909216919091179055565b600160a060020a0383811660008181526015602052604081208054600160a060020a03199081169093178155600101805490921692851692909217905582905b6005811015612c1857600160a060020a038281166000908152601560205260409020541615612be057600160a060020a0382166000908152601560205260409020612b98906001906002018360058110612b9057612b906135d9565b015490612759565b600160a060020a03831660009081526015602052604090206002018260058110612bc457612bc46135d9565b0155612bdb82612bd583600161359b565b85613223565b612be5565b612c18565b600160a060020a039182166000908152601560205260409020600101549091169080612c1081613679565b915050612b34565b5050505050565b60008111612c425760405160e560020a62461bcd028152600401610a9e90613750565b6000612c556103e8610ec08460416127bb565b90506000612c6a6103e8610ec08560236127bb565b600e54604051919250600160a060020a03169083156108fc029084906000818181858888f19350505050158015612ca5573d6000803e3d6000fd5b50600f54604051600160a060020a039091169082156108fc029083906000818181858888f19350505050158015612ce0573d6000803e3d6000fd5b50505050565b60008080612cf56064856135b3565b612d009060026136c7565b90506000612d0e8286613584565b959194509092505050565b6000808080612d2885886136c7565b90506000612d3686886136c7565b90506000612d448284613584565b929992985090965090945050505050565b6000806000806000612d6686612270565b600160a060020a038d1660009081526006602052604090205494995092975090955093509150612d97908790613584565b600160a060020a038916600090815260066020908152604080832093909355600590522054612dc7908690613584565b600160a060020a03808a166000908152600560205260408082209390935590891681522054612df790859061359b565b600160a060020a038816600090815260056020526040902055612e1a83826132f7565b86600160a060020a031688600160a060020a03167fddf252ad1be2c89b69c2b068fc378daa952ba7f163c4a11628f55a4df523b3ef84604051612e5f91815260200190565b60405180910390a35050505050505050565b6000806000806000612e8286612270565b600160a060020a038d1660009081526005602052604090205494995092975090955093509150612eb3908690613584565b600160a060020a03808a16600090815260056020908152604080832094909455918a16815260069091522054612eea90839061359b565b600160a060020a038816600090815260066020908152604080832093909355600590522054612df790859061359b565b6000806000806000612f2b86612270565b600160a060020a038d1660009081526005602052604090205494995092975090955093509150612dc7908690613584565b6000806000806000612f6d86612270565b600160a060020a038d1660009081526006602052604090205494995092975090955093509150612f9e908790613584565b600160a060020a038916600090815260066020908152604080832093909355600590522054612eb3908690613584565b60008184841115612ff55760405160e560020a62461bcd028152600401610a9e9190613368565b506000612a368486613584565b60095460009081906a52b7d2dcc80cd2e4000000825b6008548110156131655782600560006008848154811061303a5761303a6135d9565b6000918252602080832090910154600160a060020a0316835282019290925260400190205411806130a5575081600660006008848154811061307e5761307e6135d9565b6000918252602080832090910154600160a060020a03168352820192909252604001902054115b156130c3575050600954936a52b7d2dcc80cd2e40000009350915050565b60056000600883815481106130da576130da6135d9565b6000918252602080832090910154600160a060020a031683528201929092526040019020546131099084613584565b92506006600060088381548110613122576131226135d9565b6000918252602080832090910154600160a060020a031683528201929092526040019020546131519083613584565b91508061315d81613679565b915050613018565b506a52b7d2dcc80cd2e400000060095461317f91906135b3565b82101561319e575050600954926a52b7d2dcc80cd2e400000092509050565b90939092509050565b600081836131cb5760405160e560020a62461bcd028152600401610a9e9190613368565b506000612a3684866135b3565b600081116131fb5760405160e560020a62461bcd028152600401610a9e90613750565b600061320e6103e8610ec08460286127bb565b90506000612c6a6103e8610ec08560146127bb565b600082600114156132465761323f6103e8610ec08460326127bb565b90506132b1565b82600214156132605761323f6103e8610ec08460286127bb565b826003141561327a5761323f6103e8610ec084601e6127bb565b82600414156132945761323f6103e8610ec08460146127bb565b82600514156132b1576132ae6103e8610ec084600a6127bb565b90505b6014546132be9082612759565b601455604051600160a060020a0385169082156108fc029083906000818181858888f19350505050158015612c18573d6000803e3d6000fd5b816009546133059190613584565b600955600a5461331690829061359b565b600a555050565b600160a060020a0381168114610a2457600080fd5b60006020828403121561334457600080fd5b8135610c088161331d565b60006020828403121561336157600080fd5b5035919050565b600060208083528351808285015260005b8181101561339557858101830151858201604001528201613379565b818111156133a7576000604083870101525b50601f01601f1916929092016040019392505050565b600080604083850312156133d057600080fd5b82356133db8161331d565b946020939093013593505050565b6000806000606084860312156133fe57600080fd5b83356134098161331d565b925060208401356134198161331d565b929592945050506040919091013590565b8015158114610a2457600080fd5b6000806040838503121561344b57600080fd5b82359150602083013561345d8161342a565b809150509250929050565b6000806040838503121561347b57600080fd5b82356134868161331d565b9150602083013561345d8161331d565b600081518084526020808501945080840160005b838110156134c6578151875295820195908201906001016134aa565b509495945050505050565b6080815260006134e46080830187613496565b6020838203818501526134f78288613496565b9150838203604085015261350b8287613496565b8481036060860152855180825282870193509082019060005b81811015613542578451151583529383019391830191600101613524565b50909998505050505050505050565b600160a060020a03929092168252602082015260400190565b60e060020a634e487b710260009081526011600452602490fd5b6000828210156135965761359661356a565b500390565b600082198211156135ae576135ae61356a565b500190565b6000826135d45760e060020a634e487b710260009081526012600452602490fd5b500490565b60e060020a634e487b710260009081526032600452602490fd5b6020808252818101527f4f776e61626c653a2063616c6c6572206973206e6f7420746865206f776e6572604082015260600190565b6020808252601b908201527f4163636f756e7420697320616c7265616479206578636c756465640000000000604082015260600190565b60e060020a634e487b710260009081526031600452602490fd5b600060001982141561368d5761368d61356a565b5060010190565b6020808252601690820152605260020a751059191c995cdcc818d85b9b9bdd081899481b9d5b1b02604082015260600190565b60008160001904831182151516156136e1576136e161356a565b500290565b60e060020a634e487b710260009081526041600452602490fd5b60006020828403121561371257600080fd5b8151610c088161342a565b6020808252601690820152605060020a75426f7473206e6f7420616c6c6f77656420686572652102604082015260600190565b6020808252601d908201527f416d6f756e74206d7573742062652067726561746572207468616e203000000060408201526060019056feaf2a53799989d65c435efb2fb5aa187b184295fa3ac08d532832f9d5b85c03508be0079c531659141344cd1fd0a4f28419497f9722a3daafe3b4186f6b6457e0a2646970667358221220020bbd4a4db0a757b12b56e42bcac2bff628534d9696e7735d56aa45b178179f64736f6c634300080b0033",
  "immutableReferences": {},
  "source": "// File: contracts/Roitoken.sol\r\n// SPDX-License-Identifier: MIT\r\npragma solidity 0.8.11;\r\n\r\nimport \"@openzeppelin/contracts/security/ReentrancyGuard.sol\";\r\n\r\nimport \"./libraries/SafeMath.sol\";\r\nimport \"./libraries/Ownable.sol\";\r\nimport \"./ROIToken.sol\";\r\n\r\ncontract StableIncomeSystem is ReentrancyGuard, ROIToken {\r\n    using SafeMath for uint256;\r\n    uint256 private constant PRIMARY_BENIFICIARY_INVESTMENT_PERC = 65;\r\n    uint256 private constant SECONDARY_BENIFICIARY_INVESTMENT_PERC = 35;\r\n    uint256 private constant PRIMARY_BENIFICIARY_REINVESTMENT_PERC = 40;\r\n    uint256 private constant SECONDARY_BENIFICIARY_REINVESTMENT_PERC = 20;\r\n    uint256 private constant PLAN_TERM = 30 days;\r\n    uint256 private constant TIME_STEP_DRAW = 1 days;\r\n    uint256 private constant DAILY_INTEREST_RATE = 50;\r\n    uint256 private constant DAILY_AUTO_REINTEREST_RATE = 250;\r\n    uint256 private constant ON_WITHDRAW_AUTO_REINTEREST_RATE = 250;\r\n    uint256 private constant MIN_WITHDRAW = 0.02 ether;\r\n    uint256 private constant MIN_INVESTMENT = 0.05 ether;\r\n    uint256 private constant REFERENCE_LEVEL1_RATE = 50;\r\n    uint256 private constant REFERENCE_LEVEL2_RATE = 40;\r\n    uint256 private constant REFERENCE_LEVEL3_RATE = 30;\r\n    uint256 private constant REFERENCE_LEVEL4_RATE = 20;\r\n    uint256 private constant REFERENCE_LEVEL5_RATE = 10;\r\n    address payable public primaryBenificiary;\r\n    address payable public secondaryBenificiary;\r\n    uint256 public totalInvested;\r\n    uint256 public activeInvested;\r\n    uint256 public totalWithdrawal;\r\n    uint256 public totalReinvested;\r\n    uint256 public totalReferralReward;\r\n    struct Investor {\r\n        address addr;\r\n        address ref;\r\n        uint256[5] refs;\r\n        uint256 totalDeposit;\r\n        uint256 totalWithdraw;\r\n        uint256 totalReinvest;\r\n        Investment[] investments;\r\n    }\r\n    struct Investment {\r\n        uint256 investmentDate;\r\n        uint256 investment;\r\n        uint256 dividendCalculatedDate;\r\n        bool isExpired;\r\n        uint256 lastWithdrawalDate;\r\n        uint256 dividends;\r\n        uint256 withdrawn;\r\n    }\r\n    mapping(address => Investor) public investors;\r\n    event OnInvest(address investor, uint256 amount);\r\n    event OnReinvest(address investor, uint256 amount);\r\n    ////////////////////////////////////////////////////////\r\n\r\n    constructor(address payable _primaryAddress, address payable _secondaryAddress) {\r\n        require( _primaryAddress != address(0) && _secondaryAddress != address(0), \"Primary or Secondary address cannot be null\");\r\n        primaryBenificiary = _primaryAddress;\r\n        secondaryBenificiary = _secondaryAddress;\r\n        }\r\n\r\n    function changePrimaryBenificiary(address payable newAddress) public onlyOwner {require(newAddress != address(0), \"Address cannot be null\");primaryBenificiary = newAddress;}\r\n    function changeSecondaryBenificiary(address payable newAddress) public onlyOwner {require(newAddress != address(0), \"Address cannot be null\"); secondaryBenificiary = newAddress;}\r\n    function invest(address _ref) public payable {if (_invest(msg.sender, _ref, msg.value)) {emit OnInvest(msg.sender, msg.value);}}\r\n    function getBalance() public view returns (uint256) {return address(this).balance;}\r\n\r\n    function _invest(address _addr, address _ref, uint256 _amount) private returns (bool) {\r\n        require(msg.value >= MIN_INVESTMENT, \"Minimum investment is 0.05 Matic\");\r\n        require(_ref != _addr, \"Ref address cannot be same with caller\");\r\n        if (investors[_addr].addr == address(0)) {_addInvestor(_addr, _ref, _amount);}\r\n        investors[_addr].totalDeposit = investors[_addr].totalDeposit.add(_amount);\r\n        totalInvested = totalInvested.add(_amount);\r\n        activeInvested = activeInvested.add(_amount);\r\n        investors[_addr].investments.push(\r\n            Investment({investmentDate: block.timestamp,\r\n                        investment: _amount,\r\n                        dividendCalculatedDate: block.timestamp,\r\n                        lastWithdrawalDate: block.timestamp,\r\n                        isExpired: false,\r\n                        dividends: 0,\r\n                        withdrawn: 0}));\r\n        _sendRewardOnInvestment(_amount);\r\n        uint256 roisupply = balanceOf(address(this));\r\n        if(roisupply >= _amount){this.transfer(_addr, _amount);}\r\n        else if(roisupply >= 0 && roisupply < _amount){this.transfer(_addr, roisupply);}\r\n        return true;}\r\n\r\n    function _sendReferralReward(address payable _ref,  uint256 level, uint256 _amount) private {\r\n        uint256 reward;\r\n        if (level == 1) {reward = _amount.mul(REFERENCE_LEVEL1_RATE).div(1000);\r\n        } else if (level == 2) {reward = _amount.mul(REFERENCE_LEVEL2_RATE).div(1000);\r\n        } else if (level == 3) {reward = _amount.mul(REFERENCE_LEVEL3_RATE).div(1000);\r\n        } else if (level == 4) {reward = _amount.mul(REFERENCE_LEVEL4_RATE).div(1000);\r\n        } else if (level == 5) {reward = _amount.mul(REFERENCE_LEVEL5_RATE).div(1000);}\r\n        totalReferralReward = totalReferralReward.add(reward);\r\n        _ref.transfer(reward);}\r\n\r\n    function _reinvest(address _addr, uint256 _amount) private returns (bool) {\r\n        investors[_addr].totalDeposit = investors[_addr].totalDeposit.add(_amount);\r\n        investors[_addr].totalReinvest = investors[_addr].totalReinvest.add(_amount);\r\n        totalReinvested = totalReinvested.add(_amount);\r\n        investors[_addr].investments.push(\r\n            Investment({\r\n                investmentDate: block.timestamp,\r\n                investment: _amount,\r\n                dividendCalculatedDate: block.timestamp,\r\n                lastWithdrawalDate: block.timestamp,\r\n                isExpired: false,\r\n                dividends: 0,\r\n                withdrawn: 0}));\r\n        activeInvested = activeInvested.add(_amount);\r\n        totalInvested = totalInvested.add(_amount);\r\n        _sendRewardOnReinvestment(_amount);\r\n        return true;}\r\n\r\n    function _addInvestor(address _addr, address _ref, uint256 _amount) private {\r\n        investors[_addr].addr = _addr;    address refAddr = _ref;    investors[_addr].ref = _ref;\r\n        for (uint256 i = 0; i < 5; i++) {if (investors[refAddr].addr != address(0)) {investors[refAddr].refs[i] = investors[refAddr].refs[i].add(1);\r\n                                                        _sendReferralReward(payable(refAddr), (i + 1), _amount);} else break;\r\n                                            refAddr = investors[refAddr].ref;}}\r\n\r\n    function _sendRewardOnInvestment(uint256 _amount) private {\r\n        require(_amount > 0, \"Amount must be greater than 0\");\r\n        uint256 rewardForPrimaryBenificiary = _amount.mul(PRIMARY_BENIFICIARY_INVESTMENT_PERC).div(1000);\r\n        uint256 rewardForSecondaryBenificiary = _amount.mul(SECONDARY_BENIFICIARY_INVESTMENT_PERC).div(1000);\r\n        primaryBenificiary.transfer(rewardForPrimaryBenificiary);\r\n        secondaryBenificiary.transfer(rewardForSecondaryBenificiary);}\r\n\r\n    function _sendRewardOnReinvestment(uint256 _amount) private {\r\n        require(_amount > 0, \"Amount must be greater than 0\");\r\n        uint256 rewardForPrimaryBenificiary = _amount.mul(PRIMARY_BENIFICIARY_REINVESTMENT_PERC).div(1000);\r\n        uint256 rewardForSecondaryBenificiary = _amount.mul(SECONDARY_BENIFICIARY_REINVESTMENT_PERC).div(1000);\r\n        primaryBenificiary.transfer(rewardForPrimaryBenificiary);\r\n        secondaryBenificiary.transfer(rewardForSecondaryBenificiary);}\r\n\r\n    function getInvestorRefs(address addr) public view  returns (uint256,uint256,uint256,uint256,uint256)\r\n        {Investor storage investor = investors[addr]; return (investor.refs[0], investor.refs[1], investor.refs[2], investor.refs[3], investor.refs[4]);}\r\n\r\n    function getDividends(address addr) public view returns (uint256,bool) {\r\n        Investor storage investor = investors[addr];\r\n        uint256 dividendAmount = 0;\r\n        bool toReinvest=false;\r\n        for (uint256 i = 0; i < investor.investments.length; i++) {// if (investor.investments[i].isExpired) {continue;}\r\n            uint256 calculatedDate = block.timestamp;\r\n            uint256 endTime = investor.investments[i].investmentDate.add(PLAN_TERM);\r\n            if (calculatedDate >= endTime) {calculatedDate = endTime;}\r\n            uint256 amount = _calculateDividends(investor.investments[i].investment, DAILY_INTEREST_RATE, calculatedDate, investor.investments[i].lastWithdrawalDate);\r\n            dividendAmount = dividendAmount.add(amount);\r\n            uint256 numberOfDays = calculatedDate.subz(investor.investments[i].dividendCalculatedDate) / TIME_STEP_DRAW;\r\n            if (numberOfDays > 0) toReinvest = true;\r\n        }    return (dividendAmount,toReinvest);}\r\n\r\n    function calculateDividendsAndautoReinvest(address addr) public {\r\n        Investor storage investor = investors[addr];\r\n        for (uint256 i = 0; i < investor.investments.length; i++) {\r\n            if (investor.investments[i].isExpired) {continue;}\r\n            uint256 calculatedDate = block.timestamp;\r\n            uint256 endTime = investor.investments[i].investmentDate.add(PLAN_TERM);\r\n            if (calculatedDate >= endTime) {calculatedDate = endTime; investor.investments[i].isExpired = true;\r\n                                            activeInvested = activeInvested.subz(investor.investments[i].investment);}\r\n            uint256 amount = _calculateDividends(investor.investments[i].investment, DAILY_INTEREST_RATE, calculatedDate, investor.investments[i].lastWithdrawalDate);\r\n            investor.investments[i].dividends = amount;\r\n            uint256 numberOfDays = calculatedDate.subz(investor.investments[i].dividendCalculatedDate) / TIME_STEP_DRAW;\r\n            if (numberOfDays == 0) continue;\r\n            uint256 amountToReinvest = amount.mul(DAILY_AUTO_REINTEREST_RATE).div(1000);\r\n            if (_reinvest(addr, amountToReinvest)) {emit OnInvest(addr, amountToReinvest);}\r\n            investor.investments[i].dividends = investor.investments[i].dividends.subz(amountToReinvest);\r\n            totalReinvested = totalReinvested.add(amountToReinvest);\r\n            investor.investments[i].dividendCalculatedDate = calculatedDate;}}\r\n\r\n    function getInvestments(address addr) public view returns (uint256[] memory, uint256[] memory, uint256[] memory, bool[] memory)\r\n        {Investor storage investor = investors[addr];\r\n        uint256[] memory investmentDates = new uint256[](investor.investments.length);\r\n        uint256[] memory investments = new uint256[](investor.investments.length);\r\n        uint256[] memory withdrawn = new uint256[](investor.investments.length);\r\n        bool[] memory isExpireds = new bool[](investor.investments.length);\r\n        for (uint256 i; i < investor.investments.length; i++) {\r\n            require(investor.investments[i].investmentDate != 0, \"wrong investment date\");\r\n            withdrawn[i] = investor.investments[i].withdrawn;\r\n            investmentDates[i] = investor.investments[i].investmentDate;\r\n            investments[i] = investor.investments[i].investment;\r\n            if (investor.investments[i].isExpired) {isExpireds[i] = true;} \r\n            else {isExpireds[i] = false;\r\n                  if (PLAN_TERM > 0) {if (block.timestamp >= investor.investments[i].investmentDate.add(PLAN_TERM)) {isExpireds[i] = true;}}}}\r\n        return (investmentDates, investments, withdrawn, isExpireds);}\r\n\r\n    function _calculateDividends(uint256 _amount, uint256 _dailyInterestRate, uint256 _now, uint256 _start) private pure returns (uint256) \r\n        {return (((_amount * _dailyInterestRate) / 1000) * (_now - _start)) / (TIME_STEP_DRAW);}\r\n\r\n    function withdraw() public nonReentrant {\r\n        calculateDividendsAndautoReinvest(msg.sender);\r\n        (uint256 dividends,) = getDividends(msg.sender);\r\n        require(dividends >= MIN_WITHDRAW, \"Cannot withdraw less than 0.02 Matic\");\r\n        uint256 reinvestAmount = dividends.mul(ON_WITHDRAW_AUTO_REINTEREST_RATE).div(1000);\r\n        _reinvest(msg.sender, reinvestAmount);\r\n        uint256 remainingAmount = dividends.subz(reinvestAmount);\r\n        totalWithdrawal = totalWithdrawal.add(remainingAmount);        // Withdrawal date save\r\n        investors[msg.sender].totalWithdraw = remainingAmount;\r\n        for (uint256 i = 0; i < investors[msg.sender].investments.length; i++) {\r\n            investors[msg.sender].investments[i].lastWithdrawalDate = block.timestamp;\r\n            investors[msg.sender].investments[i].withdrawn = investors[msg.sender].investments[i].dividends;\r\n            investors[msg.sender].investments[i].dividends = 0;}\r\n        payable(msg.sender).transfer(remainingAmount);}\r\n\r\n    function getContractInformation() public view returns (uint256,uint256,uint256,uint256,uint256,uint256)\r\n        {uint256 contractBalance = getBalance(); return (contractBalance, totalInvested, activeInvested, totalWithdrawal, totalReinvested, totalReferralReward);}\r\n}",
  "sourcePath": "G:\\roit\\backend\\contracts\\StableIncomeSystem.sol",
  "compiler": {
    "name": "solc",
    "version": "0.8.11+commit.d7f03943.Emscripten.clang"
  },
  "schemaVersion": "3.4.4",
  "updatedAt": "2022-02-10T21:54:54.485Z",
  "networkType": "ethereum",
  "devdoc": {
    "kind": "dev",
    "methods": {
      "getOwner()": {
        "details": "Returns the amount of tokens in existence."
      },
      "increaseAllowance(address,uint256)": {
        "details": "Returns the remaining number of tokens that `spender` will be allowed to spend on behalf of `owner` through {transferFrom}. This is* zero by default. This value changes when {approve} or {transferFrom} are called."
      },
      "owner()": {
        "details": "Initializes the contract setting the deployer as the initial owner."
      },
      "renounceOwnership()": {
        "details": "Throws if called by any account other than the owner."
      },
      "transferOwnership(address)": {
        "details": "Leaves the contract without owner. It will not be possible to call `onlyOwner` functions anymore. Can only be called by the current owner. NOTE: Renouncing ownership will leave the contract without an owner, thereby removing any functionality that is only available to the owner."
      }
    },
    "version": 1
  },
  "userdoc": {
    "kind": "user",
    "methods": {},
    "version": 1
  }
}